:020000040800F2
:1000000000280020A11B0008311B0008371B000836
:100010003D1B0008431B0008491B000800000000AE
:100020000000000000000000000000004F1B00085E
:100030005B1B000800000000671B0008731B000822
:10004000E91B0008E91B0008E91B0008E91B000880
:10005000E91B0008E91B0008E91B0008E91B000870
:10006000E91B0008E91B0008E91B0008E91B000860
:10007000E91B0008E91B0008E91B0008E91B000850
:10008000E91B0008E91B0008E91B0008E91B000840
:10009000E91B0008E91B0008E91B0008E91B000830
:1000A000E91B0008E91B0008E91B0008E91B000820
:1000B000811B0008E91B000800000000E91B000884
:1000C000E91B00080000000000000000E91B000818
:1000D00000000000E91B0008E91B00080000000008
:1000E000E91B0008E91B0008E91B000800000000EC
:1000F0000000000000000000000000000000000000
:0C01000000000000000000005FF808F1A3
:10010C0010B5054C237833B9044B13B10448AFF345
:10011C0000800123237010BD70000020000000003F
:10012C004032000808B5034B1BB103490348AFF339
:10013C00008008BD00000000740000204032000860
:10014C0080B400AF064B1B68012B04D1044B00227A
:10015C001A60012300E000231846BD4680BC70479E
:10016C008C00002080B400AF064B1B68012B04D11F
:10017C00044B00221A60012300E000231846BD4600
:10018C0080BC70479000002080B400AF064B1B6809
:10019C00012B04D1044B00221A60012300E0002340
:1001AC001846BD4680BC70479400002080B400AF58
:1001BC00034B01221A6000BFBD4680BC704700BFD4
:1001CC008C00002080B400AF034B01221A6000BFEA
:1001DC00BD4680BC704700BF9000002080B400AFCB
:1001EC00034B01221A6000BFBD4680BC704700BFA4
:1001FC009400002080B500AF224B1B68224A13608C
:10020C00224B1B681F4A13604FF40051204801F029
:10021C00D1FF03461A461D4B1A601A4B1A681B4B2A
:10022C001B689A422BD1174B1A68174B1B689A42C2
:10023C0025D1154B1A68174B1B689A420DD0124BDF
:10024C001B68144A1360104B1B68002B17D1124B00
:10025C0064221A60FFF7AAFF11E00F4B1B68013BE9
:10026C000D4A13600C4B1B68002B08D1064B1B6806
:10027C00002B01D1FFF79AFF074B64221A6000BFD5
:10028C0080BD00BF040000200800002000000020FA
:10029C00001001400C0000203000002080B500AFA1
:1002AC00224B1B68224A1360224B1B681F4A1360A7
:1002BC004FF40041204801F07DFF03461A461D4BC8
:1002CC001A601A4B1A681B4B1B689A422BD1174B9E
:1002DC001A68174B1B689A4225D1154B1A68174B95
:1002EC001B689A420DD0124B1B68144A1360104BBA
:1002FC001B68002B17D1124B64221A60FFF76EFF9C
:10030C0011E00F4B1B68013B0D4A13600C4B1B6833
:10031C00002B08D1064B1B68002B01D1FFF75EFFA9
:10032C00074B64221A6000BF80BD00BF2400002070
:10033C002800002020000020001001402C0000208C
:10034C003000002080B500AF224B1B68224A13609E
:10035C00224B1B681F4A13604FF48041204801F068
:10036C0029FF03461A461D4B1A601A4B1A681B4B81
:10037C001B689A422BD1174B1A68174B1B689A4271
:10038C0025D1154B1A68174B1B689A420DD0124B8E
:10039C001B68144A1360104B1B68002B17D1124BAF
:1003AC0064221A60FFF70EFF11E00F4B1B68013B34
:1003BC000D4A13600C4B1B68002B08D1064B1B68B5
:1003CC00002B01D1FFF7FEFE074B64221A6000BF21
:1003DC0080BD00BF14000020180000201000002079
:1003EC00001001401C0000203000002080B582B0BD
:1003FC0000AF78607B68002B22D100220121BD4820
:10040C0001F0EFFE00220221BA4801F0EAFE0022C0
:10041C000421B84801F0E5FE00220821B54801F09E
:10042C00E0FE00221021B34801F0DBFE0022202167
:10043C00B04801F0D6FE01224021AE4801F0D1FEB9
:10044C007B68012B22D101220121AA4801F0C9FEAF
:10045C0000220221A74801F0C4FE00220421A54875
:10046C0001F0BFFE01220821A24801F0BAFE0122D0
:10047C001021A04801F0B5FE012220219D4801F079
:10048C00B0FE012240219B4801F0ABFE7B68022BA1
:10049C0022D100220121974801F0A3FE0022022163
:1004AC00944801F09EFE01220421924801F099FE2D
:1004BC00002208218F4801F094FE002210218D4863
:1004CC0001F08FFE012220218A4801F08AFE0022D1
:1004DC004021884801F085FE7B68032B22D1002245
:1004EC000121844801F07DFE00220221814801F0A7
:1004FC0078FE002204217F4801F073FE00220821BF
:10050C007C4801F06EFE012210217A4801F069FE50
:10051C0001222021774801F064FE00224021754819
:10052C0001F05FFE7B68042B22D10122012171486E
:10053C0001F057FE002202216E4801F052FE00220B
:10054C0004216C4801F04DFE01220821694801F09C
:10055C0048FE01221021674801F043FE00222021B1
:10056C00644801F03EFE00224021624801F039FE51
:10057C007B68052B22D1002201215E4801F031FE5F
:10058C00012202215B4801F02CFE00220421594873
:10059C0001F027FE00220821564801F022FE01221C
:1005AC001021544801F01DFE00222021514801F079
:1005BC0018FE002240214F4801F013FE7B68062BE9
:1005CC0022D1002201214B4801F00BFE0122022115
:1005DC00484801F006FE00220421464801F001FEC5
:1005EC0000220821434801F0FCFD00221021414863
:1005FC0001F0F7FD002220213E4801F0F2FD00221F
:10060C0040213C4801F0EDFD7B68072B22D10022F4
:10061C000121384801F0E5FD00220221354801F0A6
:10062C00E0FD00220421334801F0DBFD012208210A
:10063C00304801F0D6FD012210212E4801F0D1FDE9
:10064C00012220212B4801F0CCFD01224021294818
:10065C0001F0C7FD7B68082B22D10022012125481F
:10066C0001F0BFFD00220221224801F0BAFD002258
:10067C000421204801F0B5FD002208211D4801F09D
:10068C00B0FD002210211B4801F0ABFD00222021FF
:10069C00184801F0A6FD00224021164801F0A1FDEA
:1006AC007B68092B22D100220121124801F099FD0F
:1006BC00002202210F4801F094FD002204210D4874
:1006CC0001F08FFD002208210A4801F08AFD012269
:1006DC001021084801F085FD00222021054801F079
:1006EC0080FD00224021034801F07BFD00BF08374C
:1006FC00BD4680BD000C014080B582B000AF786073
:10070C007B68002B28D100228021D24801F069FDA2
:10071C0000224FF48071CF4801F063FD00224FF4AA
:10072C000071CC4801F05DFD00224FF48061C94896
:10073C0001F057FD00224FF40061C64801F051FD55
:10074C0000224FF48051C34801F04BFD01224FF4BD
:10075C000051C04801F045FD7B68012B28D10122D6
:10076C008021BC4801F03DFD00224FF48071B94856
:10077C0001F037FD00224FF40071B64801F031FD55
:10078C0001224FF48061B34801F02BFD01224FF49C
:10079C000061B04801F025FD01224FF48051AD48B5
:1007AC0001F01FFD01224FF40051AA4801F019FD80
:1007BC007B68022B28D100228021A64801F011FD74
:1007CC0000224FF48071A34801F00BFD01224FF47D
:1007DC000071A04801F005FD00224FF480619D4896
:1007EC0001F0FFFC00224FF400619A4801F0F9FC83
:1007FC0001224FF48051974801F0F3FC00224FF492
:10080C000051944801F0EDFC7B68032B28D10022A9
:10081C008021904801F0E5FC00224FF480718D4856
:10082C0001F0DFFC00224FF400718A4801F0D9FC82
:10083C0000224FF48061874801F0D3FC01224FF471
:10084C000061844801F0CDFC01224FF480518148B5
:10085C0001F0C7FC00224FF400517E4801F0C1FCAE
:10086C007B68042B28D1012280217A4801F0B9FC45
:10087C0000224FF48071774801F0B3FC00224FF452
:10088C000071744801F0ADFC01224FF48061714895
:10089C0001F0A7FC01224FF400616E4801F0A1FCAD
:1008AC0000224FF480516B4801F09BFC00224FF466
:1008BC000051684801F095FC7B68052B28D100227B
:1008CC008021644801F08DFC01224FF48071614855
:1008DC0001F087FC00224FF400715E4801F081FCAE
:1008EC0000224FF480615B4801F07BFC01224FF445
:1008FC000061584801F075FC00224FF480515548B6
:10090C0001F06FFC00224FF40051524801F069FCD9
:10091C007B68062B28D1002280214E4801F061FC17
:10092C0001224FF480714B4801F05BFC00224FF424
:10093C000071484801F055FC00224FF48061454895
:10094C0001F04FFC00224FF40061424801F049FCD9
:10095C0000224FF480513F4801F043FC00224FF439
:10096C0000513C4801F03DFC7B68072B28D100224C
:10097C008021384801F035FC00224FF48071354855
:10098C0001F02FFC00224FF40071324801F029FCD9
:10099C0001224FF480612F4801F023FC01224FF417
:1009AC0000612C4801F01DFC01224FF480512948B4
:1009BC0001F017FC01224FF40051264801F011FC04
:1009CC007B68082B28D100228021224801F009FCE9
:1009DC0000224FF480711F4801F003FC00224FF4F9
:1009EC0000711C4801F0FDFB00224FF48061194896
:1009FC0001F0F7FB00224FF40061164801F0F1FB07
:100A0C0000224FF48051134801F0EBFB00224FF40D
:100A1C000051104801F0E5FB7B68092B2BD100221B
:100A2C0080210C4801F0DDFB00224FF48071094855
:100A3C0001F0D7FB00224FF40071064801F0D1FB06
:100A4C0000224FF48061034801F0CBFB01224FF4EC
:100A5C00006101E0000C0140094801F0C2FB0022DA
:100A6C004FF48051064801F0BCFB00224FF40051BA
:100A7C00034801F0B6FB00BF0837BD4680BD00BF80
:100A8C00000C014080B582B000AF78607B68002B11
:100A9C0003D07B68012B14D027E001224FF40041D6
:100AAC00144801F09EFB00224FF48041114801F0E4
:100ABC0098FB114A7B6852F823301846FFF796FCD6
:100ACC0013E001224FF480410A4801F08AFB002216
:100ADC004FF40041074801F084FB074A7B6852F849
:100AEC0023301846FFF782FC00BF00BF0837BD4615
:100AFC0080BD00BF000C01405000002080B582B0CA
:100B0C0000AF78607B68022B03D07B68032B14D07A
:100B1C0027E000224FF48051144801F062FB0122BF
:100B2C004FF40051114801F05CFB114A7B6852F8FC
:100B3C0023301846FFF7E0FD13E001224FF48051FB
:100B4C000A4801F04EFB00224FF40051074801F017
:100B5C0048FB074A7B6852F823301846FFF7CCFD58
:100B6C0000BF00BF0837BD4680BD00BF0008014074
:100B7C005000002080B483B000AF78607B680D4AD1
:100B8C0082FB03129210DB17D31A0B4A136079689D
:100B9C00084B83FB01239A10CB17D21A13469B00E8
:100BAC0013445B00CA1A044B5A6000BF0C37BD4695
:100BBC0080BC7047676666665000002080B483B0C6
:100BCC0000AF78607B680D4A82FB03129210DB1732
:100BDC00D31A0B4A93607968084B83FB01239A1054
:100BEC00CB17D21A13469B0013445B00CA1A044B52
:100BFC00DA6000BF0C37BD4680BC7047676666661E
:100C0C005000002080B500AF824B1B68013B032BCA
:100C1C0000F2888101A252F823F000BF390C0008C1
:100C2C00630C0008410D0008550E0008794B022298
:100C3C001A60794B1B68642202FB03F3184600F020
:100C4C0001FE642000F018FE322000F049FE734BC8
:100C5C0000221A606DE1724B1B68002B03D16E4BA6
:100C6C001B686F4A13606D4B1B68012B02DD6B4BCD
:100C7C0000221A606A4B1B681846FFF77BFF674B14
:100C8C001B681846FFF7FEFE664B1B68012B07D14D
:100C9C00634B1B68013B624A1360642000F0ECFD5F
:100CAC00614B1B68012B07D15C4B1B6801335B4A02
:100CBC001360322000F014FE002240215B4801F04A
:100CCC0090FA01228021594801F08BFA01224FF44D
:100CDC008071564801F085FA554B1B68012B16D1D3
:100CEC004C4B03221A60534B1B68642202FB03F328
:100CFC00184600F0A7FD504B00221A60642000F04B
:100D0C00BBFD322000F0ECFD444B00221A60FFF7D3
:100D1C0017FA0346012B40F007813E4B0C221A6058
:100D2C00322000F0A9FD3D4B00221A60434B0222F9
:100D3C001A60F9E0404B1B68002B03D13D4B1B683C
:100D4C003D4A1360354B1B68012B02DD334B0022EF
:100D5C001A60394B1B681846FFF70CFF2F4B1B68AA
:100D6C001846FFF78FFE2F4B1B68012B07D1324B18
:100D7C001B68013B304A1360642000F07DFD2A4B58
:100D8C001B68012B07D1254B1B680133234A1360C9
:100D9C00322000F0A5FD01224021244801F021FA67
:100DAC0000228021214801F01CFA01224FF48071AD
:100DBC001E4801F016FA1E4B1B68012B16D1154B61
:100DCC0004221A601E4B00221A601E4B1B68642200
:100DDC0002FB03F3184600F035FD642000F04CFDD7
:100DEC00322000F07DFD0D4B00221A60FFF7A8F9B0
:100DFC000346012B40F09A80064B0C221A603220DD
:100E0C0000F03AFD054B00221A600C4B02221A60CE
:100E1C008CE000BF9800002034000020B8000020B7
:100E2C00A0000020D8000020E000002000080140B5
:100E3C00D400002038000020A40000204C0000202A
:100E4C00A80000203C0000203B4B1B68002B03D16A
:100E5C003A4B1B68384A1360394B1B68012B02DD77
:100E6C00374B00221A60344B1B681846FFF782FE82
:100E7C00334B1B681846FFF705FE324B1B68012BE2
:100E8C0007D12D4B1B68013B2B4A1360642000F0EB
:100E9C00F3FC2D4B1B68012B07D1294B1B6801332D
:100EAC00274A1360322000F01BFD01224021274805
:100EBC0001F097F901228021244801F092F90022D7
:100ECC004FF48071214801F08CF9214B1B68012BE8
:100EDC0016D1204B02221A601F4B00221A601F4BA6
:100EEC001B68642202FB03F3184600F0ABFC642081
:100EFC0000F0C2FC322000F0F3FC114B00221A600F
:100F0C00FFF71EF90346012B12D1124B0C221A606B
:100F1C00322000F0B1FC0A4B00221A60104B022266
:100F2C001A6005E000BF04E000BF02E000BF00E073
:100F3C0000BF00BF80BD00BFA80000203C00002007
:100F4C00B8000020D8000020E0000020000801407C
:100F5C00D400002098000020A000002034000020C5
:100F6C004C00002080B500AFA94B1B68013B032B44
:100F7C0000F2458101A252F823F000BF990F00083E
:100F8C00C90F00088B1000084B110008A04B03225E
:100F9C001A60A04B1B68642202FB03F3184600F096
:100FAC0085FC642000F0B6FC322000F0CDFC9A4B9E
:100FBC0002221A60994B00221A6027E1964B1B689B
:100FCC00032B02DD944B02221A60954B1B68002BFD
:100FDC0003D1944B1B68924A1360914B1B681846C3
:100FEC00FFF7ECFD8C4B1B681846FFF787FD8E4B0B
:100FFC001B68012B07D18A4B1B68013B884A136085
:10100C00642000F087FC894B1B68012B07D1824BB5
:10101C001B680133804A1360322000F095FC0022DB
:10102C000421834801F0DDF801220821804801F0F9
:10103C00D8F8012210217E4801F0D3F87D4B1B68B3
:10104C00012B13D1724B03221A607B4B1B68642259
:10105C0002FB03F3184600F029FC642000F05AFC54
:10106C00322000F071FC6D4B00221A60734B1B6830
:10107C000C2B40F0C680664B64221A60C1E0664BB4
:10108C001B68032B02DD644B02221A60634B1B6846
:10109C00002B03D1684B1B68604A13605F4B1B68C5
:1010AC001846FFF78BFD5C4B1B681846FFF726FDB7
:1010BC005D4B1B68012B07D1584B1B68013B574AF2
:1010CC001360642000F026FC584B1B68012B07D1E1
:1010DC00514B1B680133504A1360322000F034FC32
:1010EC0001220421524801F07CF8002208215048CA
:1010FC0001F077F8012210214D4801F072F84D4BA8
:10110C001B68012B13D1424B04221A604C4B00225A
:10111C001A604C4B1B68642202FB03F3184600F068
:10112C00C5FB642000F0F6FB322000F00DFC434BB5
:10113C001B680C2B67D1364B64221A6063E0364B6C
:10114C001B68032B02DD344B02221A603C4B1B68DC
:10115C00002B03D13B4B1B68394A1360384B1B687F
:10116C001846FFF72BFD2C4B1B681846FFF7C6FCE7
:10117C002D4B1B68012B07D1314B1B68013B304AAF
:10118C001360642000F0C6FB284B1B68012B07D1B1
:10119C00214B1B680133204A1360322000F0D4FB32
:1011AC0001220421224801F01CF8012208212048C8
:1011BC0001F017F8002210211D4801F012F81D4B08
:1011CC001B68012B13D1124B02221A60144B002204
:1011DC001A60144B1B68642202FB03F3184600F0E0
:1011EC0065FB642000F096FB322000F0ADFB084B51
:1011FC001B680C2B09D1064B64221A6005E000BF5A
:10120C0004E000BF02E000BF00E000BF00BF80BDF3
:10121C009C000020380000204C000020B000002072
:10122C00AC00002040000020E4000020E80000207A
:10123C0000080140DC000020440000209800002041
:10124C00B40000204800002080B500AF894B1B681B
:10125C000E2B00F027810E2B00F3A3810C2B03D057
:10126C000D2B00F084809CE1834B1B68012B02DD6D
:10127C00814B00221A60814B1B68032B02DD7F4BD4
:10128C0002221A607E4B1B681846FFF773FC022083
:10129C00FFF794FC794B1B681846FFF72FFC764B35
:1012AC001B681846FFF7EEFB01228021754800F001
:1012BC0098FF01224FF48071724800F092FF724B3C
:1012CC001B68012B14D140216E4800F0A2FF0421B1
:1012DC006C4800F09EFF684B1B680133664A136034
:1012EC00664B1B680133654A1360322000F0C4FA68
:1012FC00FEF726FF0346012B05D15E4B0D221A602B
:10130C00322000F0B9FAFEF72DFF0346012B09D16C
:10131C005B4B1B6801335A4A13605C4B1B680133EF
:10132C005A4A1360FEF730FF0346012B40F03B8115
:10133C00504B02221A60564B03221A60554B002266
:10134C001A60554B00221A604D4B1B68013B6422FE
:10135C0002FB03F3184600F075FA504B1B68013B77
:10136C00642202FB03F3184600F0A0FA1BE1424B87
:10137C001B68012B02DD404B00221A603F4B1B689F
:10138C00032B02DD3D4B02221A60454B1B681846AD
:10139C00FFF7F0FB0320FFF711FC384B1B681846D6
:1013AC00FFF7ACFB344B1B681846FFF76BFB0122B5
:1013BC004021344800F015FF01224FF48071314870
:1013CC0000F00FFF304B1B68012B14D180212D48EE
:1013DC0000F01FFF08212B4800F01BFF264B1B6859
:1013EC000133254A1360254B1B680133234A1360D4
:1013FC00322000F041FAFEF7A3FE0346012B05D183
:10140C001C4B0E221A60322000F036FAFEF7AAFEB0
:10141C000346012B09D1224B1B680133204A136070
:10142C001E4B1B6801331D4A1360FEF7ADFE0346CD
:10143C00012B40F0BA800F4B02221A60144B03228E
:10144C001A60144B00221A60134B00221A600C4BCA
:10145C001B68013B642202FB03F3184600F0F2F90F
:10146C000E4B1B68013B642202FB03F3184600F091
:10147C001DFA9AE098000020B80000204C000020D3
:10148C003400002000080140D8000020400000205B
:10149C009C000020A0000020B00000204400002090
:1014AC0038000020434B1B68012B02DD414B00220E
:1014BC001A60414B1B68032B02DD3F4B02221A6062
:1014CC003E4B1B681846FFF755FB0420FFF776FBD5
:1014DC00394B1B681846FFF711FB364B1B68184637
:1014EC00FFF7D0FA01224021354800F07AFE0122A4
:1014FC008021334800F075FE324B1B68012B15D14F
:10150C004FF480712E4800F084FE10212C4800F01E
:10151C0080FE284B1B680133264A1360264B1B6840
:10152C000133254A1360322000F0A6F9FEF708FEBD
:10153C000346012B02D1244B0C221A60FEF712FE3B
:10154C000346012B09D11D4B1B6801331B4A136049
:10155C001E4B1B6801331D4A1360FEF715FE034634
:10156C00012B24D1184B02221A60194B03221A604A
:10157C00184B00221A60184B00221A60174B1B687C
:10158C00013B642202FB03F3184600F05BF9144B99
:10159C001B68013B642202FB03F3184600F086F93A
:1015AC0005E000BF04E000BF02E000BF00E000BFA8
:1015BC0000BF80BDB80000204C0000203C00002083
:1015CC0000080140D80000209800002048000020AE
:1015DC009C000020A0000020B0000020340000205F
:1015EC004400002080B500AF00F0FAFA0A4B01224B
:1015FC001A600A4B01221A6000F014F800F09AF8F5
:10160C0000F04CF8064801F055FAFFF7FBFAFFF72B
:10161C001BFEFFF7A7FCF8E7980000209C000020B9
:10162C00EC00002080B590B000AF07F11803282221
:10163C000021184601F0F6FD3B1D00221A605A608D
:10164C009A60DA601A610223BB610123BB6210232A
:10165C00FB6200237B6307F11803184600F0F2FDD0
:10166C000346002B01D000F0E7F80F237B6000232A
:10167C00BB600023FB6000233B6100237B613B1DAF
:10168C000021184601F05EF80346002B01D000F053
:10169C00D3F800BF4037BD4680BD000080B586B092
:1016AC0000AF07F1080300221A605A609A60DA60F2
:1016BC003B4600221A605A601D4B4FF080421A6064
:1016CC001B4B41F63F725A60194B00229A60184B23
:1016DC000922DA60164B00221A61154B00229A611E
:1016EC00134801F097F90346002B01D000F0A4F841
:1016FC004FF48053BB6007F1080319460C4801F006
:10170C002DFB0346002B01D000F096F800233B6024
:10171C0000237B603B461946054801F0F5FC034667
:10172C00002B01D000F088F800BF1837BD4680BDF3
:10173C00EC00002080B588B000AF07F11003002248
:10174C001A605A609A60DA602F4B9B692E4A43F0FC
:10175C00100393612C4B9B6903F01003FB60FB6837
:10176C00294B9B69284A43F004039361264B9B69E0
:10177C0003F00403BB60BB68234B9B69224A43F014
:10178C0008039361204B9B6903F008037B607B6823
:10179C00002243F2DC111D4800F023FD00224FF61D
:1017AC00FF711B4800F01DFD4FF460433B610023AB
:1017BC007B610123BB6107F110031946154800F04A
:1017CC007FFB43F2DC133B6101237B610023BB6194
:1017DC000223FB6107F1100319460C4800F070FB63
:1017EC004FF6FF733B6101237B610023BB61022336
:1017FC00FB6107F110031946054800F061FB00BFBF
:10180C002037BD4680BD00BF0010024000080140DB
:10181C00000C01400010014080B582B000AF786030
:10182C0000F0ACF8FEF7E6FCFEF78CFDFEF736FD9B
:10183C0000BF0837BD4680BD80B400AF72B600BF94
:10184C00FEE7000080B483B000AF7860074B1B68E4
:10185C007A6892FBF3F3064A1360064B00221A6077
:10186C0000BF0C37BD4680BC704700BF6000002035
:10187C00D0000020D400002080B483B000AF78608A
:10188C00074B1B687A6892FBF3F3064A1360064B0E
:10189C0000221A6000BF0C37BD4680BC704700BFE9
:1018AC0060000020CC000020D800002080B483B061
:1018BC0000AF7860074B1B687A6892FBF3F3064A1B
:1018CC001360064B00221A6000BF0C37BD4680BC6B
:1018DC00704700BF60000020C8000020DC00002022
:1018EC0080B483B000AF7860074B1B687A6892FBBA
:1018FC00F3F3064A1360064B00221A6000BF0C3744
:10190C00BD4680BC704700BF60000020C4000020B2
:10191C00E000002080B483B000AF7860074B1B68F8
:10192C007A6892FBF3F3064A1360064B00221A60A6
:10193C0000BF0C37BD4680BC704700BF6000002064
:10194C00C0000020E400002080B483B000AF7860B9
:10195C00074B1B687A6892FBF3F3064A1360064B3D
:10196C0000221A6000BF0C37BD4680BC704700BF18
:10197C0060000020BC000020E800002080B400AF14
:10198C00314B1B68002B0BDD2F4B1B68013B2E4A88
:10199C0013602D4B1B68002B02DC2C4B01221A60B0
:1019AC002B4B1B68002B0BDD294B1B68013B284A7A
:1019BC001360274B1B68002B02DC264B01221A609C
:1019CC00254B1B68002B0BDD234B1B68013B224A6C
:1019DC001360214B1B68002B02DC204B01221A6088
:1019EC001F4B1B68002B0BDD1D4B1B68013B1C4A5E
:1019FC0013601B4B1B68002B02DC1A4B01221A6074
:101A0C00194B1B68002B0BDD174B1B68013B164A4F
:101A1C001360154B1B68002B02DC144B01221A605F
:101A2C00134B1B68002B0BDD114B1B68013B104A41
:101A3C0013600F4B1B68002B02DC0E4B01221A604B
:101A4C0000BFBD4680BC7047D0000020D4000020F1
:101A5C00CC000020D8000020C8000020DC000020B2
:101A6C00C4000020E0000020C0000020E4000020A2
:101A7C00BC000020E800002080B485B000AF154BFE
:101A8C009B69144A43F001039361124B9B6903F069
:101A9C000103BB60BB680F4BDB690E4A43F08053FC
:101AAC00D3610C4BDB6903F080537B607B680A4B82
:101ABC005B68FB60FB6823F0E063FB60FB6843F052
:101ACC008063FB60044AFB68536000BF1437BD465B
:101ADC0080BC7047001002400000014080B584B00B
:101AEC0000AF78607B681B68B3F1804F13D10C4B4F
:101AFC00DB690B4A43F00103D361094BDB6903F04B
:101B0C000103FB60FB68002200211C2000F0A1F9FE
:101B1C001C2000F0BAF900BF1037BD4680BD00BFD5
:101B2C000010024080B400AFFEE780B400AFFEE7C7
:101B3C0080B400AFFEE780B400AFFEE780B400AF26
:101B4C00FEE780B400AF00BFBD4680BC704780B4D8
:101B5C0000AF00BFBD4680BC704780B400AF00BF73
:101B6C00BD4680BC704780B500AF00F07FF800BF69
:101B7C0080BD000080B500AF024800F0E7FF00BF59
:101B8C0080BD00BFEC00002080B400AF00BFBD469C
:101B9C0080BC70470C480D490D4A002302E0D45814
:101BAC00C4500433C4188C42F9D30A4A0A4C00239B
:101BBC0001E013600432A242FBD3FFF7E5FF01F012
:101BCC000DFBFFF70FFD7047000000207000002098
:101BDC00803200087000002038010020FEE7000071
:101BEC0080B500AF084B1B68074A43F01003136025
:101BFC00032000F023F90F2000F008F8FFF73CFF5A
:101C0C000023184680BD00BF0020024080B582B082
:101C1C0000AF7860124B1A68124B1B7819464FF4C0
:101C2C007A73B3FBF1F3B2FBF3F3184600F03BF914
:101C3C000346002B01D001230EE07B680F2B0AD842
:101C4C00002279684FF0FF3000F003F9064A7B68F8
:101C5C001360002300E0012318460837BD4680BD01
:101C6C00640000206C0000206800002080B400AFED
:101C7C00054B1B781A46054B1B681344034A13602B
:101C8C0000BFBD4680BC70476C00002034010020B2
:101C9C0080B400AF024B1B681846BD4680BC704731
:101CAC003401002080B485B000AF78607B6803F00D
:101CBC000703FB600C4BDB68BB60BA684FF6FF0395
:101CCC001340BB60FB681A02BB68134343F0BF634D
:101CDC0043F40033BB60044ABB68D36000BF1437C5
:101CEC00BD4680BC704700BF00ED00E080B400AF83
:101CFC00044BDB681B0A03F007031846BD4680BC87
:101D0C00704700BF00ED00E080B483B000AF034625
:101D1C00FB7197F90730002B0BDBFB7903F01F02EB
:101D2C00064997F907305B09012000FA02F241F8E5
:101D3C00232000BF0C37BD4680BC704700E100E09B
:101D4C0080B483B000AF03463960FB7197F907305C
:101D5C00002B0ADB3B68DAB20C4997F90730120109
:101D6C00D2B20B4483F800230AE03B68DAB208498C
:101D7C00FB7903F00F03043B1201D2B20B441A7629
:101D8C0000BF0C37BD4680BC704700BF00E100E0CF
:101D9C0000ED00E080B489B000AFF860B9607A6003
:101DAC00FB6803F00703FB61FB69C3F10703042B1A
:101DBC0028BF0423BB61FB690433062B02D9FB69E2
:101DCC00033B00E000237B614FF0FF32BB6902FA5A
:101DDC0003F3DA43BB681A407B699A404FF0FF313A
:101DEC007B6901FA03F3D9437B680B401343184614
:101DFC002437BD4680BC704780B582B000AF786098
:101E0C007B68013BB3F1807F01D301230FE00A4AC9
:101E1C007B68013B53600F214FF0FF30FFF790FFC1
:101E2C00054B00229A60044B07221A6000231846C7
:101E3C000837BD4680BD00BF10E000E080B582B021
:101E4C0000AF78607868FFF72DFF00BF0837BD46FC
:101E5C0080BD80B586B000AF0346B9607A60FB7375
:101E6C0000237B61FFF742FF78617A68B968786973
:101E7C00FFF790FF024697F90F3011461846FFF70F
:101E8C005FFF00BF1837BD4680BD80B582B000AF84
:101E9C000346FB7197F907301846FFF735FF00BF73
:101EAC000837BD4680BD80B582B000AF78607868D9
:101EBC00FFF7A2FF034618460837BD4680BD000059
:101ECC0080B48BB000AF7860396000237B62002354
:101EDC003B6248E101227B6A02FA03F3FB613B6837
:101EEC001B68FA691340BB61BA69FB699A4240F0FE
:101EFC0037813B685B68A34A93425ED0A14A934208
:101F0C0075D8A14A934258D09F4A93426FD89F4AA2
:101F1C00934252D09D4A934269D89D4A93424CD0E9
:101F2C009B4A934263D89B4A934246D0994A934228
:101F3C005DD8122B2AD8122B59D801A252F823F0B3
:101F4C00C71F0008A11F0008B31F0008F51F0008D9
:101F5C00FB1F0008FB1F0008FB1F0008FB1F0008ED
:101F6C00FB1F0008FB1F0008FB1F0008FB1F0008DD
:101F7C00FB1F0008FB1F0008FB1F0008FB1F0008CD
:101F8C00FB1F0008A91F0008BD1F0008824A9342CE
:101F9C0013D02CE03B68DB683B6229E03B68DB68D4
:101FAC0004333B6224E03B68DB6808333B621FE090
:101FBC003B68DB680C333B621AE03B689B68002B88
:101FCC0002D104233B6213E03B689B68012B05D1D3
:101FDC0008233B627B68FA691A6109E008233B62BB
:101FEC007B68FA695A6103E000233B6200E000BFA2
:101FFC00BB69FF2B01D87B6801E07B6804337B61F4
:10200C00BB69FF2B02D87B6A9B0002E07B6A083B12
:10201C009B003B617B691A680F213B6901FA03F352
:10202C00DB431A40396A3B6901FA03F31A437B69B3
:10203C001A603B685B6803F08053002B00F09080C3
:10204C00564B9B69554A43F001039361534B9B6973
:10205C0003F00103BB60BB68514A7B6A9B080233E7
:10206C0052F82330FB607B6A03F003039B000F22C2
:10207C0002FA03F3DB43FA681340FB607B68494ABE
:10208C0093420DD07B68484A934207D07B68474AFD
:10209C00934201D1022304E0032302E0012300E078
:1020AC0000237A6A02F0030292009340FA68134309
:1020BC00FB603B497B6A9B080233FA6841F823209A
:1020CC003B685B6803F48033002B06D0384B1A68EE
:1020DC003749BB6913430B6006E0354B1A68BB6983
:1020EC00DB43334913400B603B685B6803F40033FC
:1020FC00002B06D02E4B5A682D49BB6913434B60FD
:10210C0006E02B4B5A68BB69DB43294913404B60F3
:10211C003B685B6803F48013002B06D0244B9A6851
:10212C002349BB6913438B6006E0214B9A68BB695A
:10213C00DB431F4913408B603B685B6803F400135F
:10214C00002B06D01A4BDA681949BB691343CB60D4
:10215C0006E0174BDA68BB69DB4315491340CB60CB
:10216C007B6A01337B623B681A687B6A22FA03F351
:10217C00002B7FF4AFAE00BF00BF2C37BD4680BC38
:10218C00704700BF00003210000031100000221018
:10219C00000021100000121000001110001002406D
:1021AC000000014000080140000C014000100140FB
:1021BC000004014080B485B000AF78600B467B8092
:1021CC007B689A687B881340002B02D00123FB7339
:1021DC0001E00023FB73FB7B18461437BD4680BC23
:1021EC00704780B483B000AF78600B467B80134699
:1021FC007B707B78002B03D07A887B681A6103E0B4
:10220C007B881A047B681A6100BF0C37BD4680BC02
:10221C00704780B485B000AF78600B467B807B68DC
:10222C00DB68FB607A88FB6813401A04FB68D943AF
:10223C007B880B401A437B681A6100BF1437BD467C
:10224C0080BC704780B586B000AF78607B68002B8F
:10225C0001D101236CE27B681B6803F00103002BA6
:10226C0000F08780924B5B6803F00C03042B0CD0BE
:10227C008F4B5B6803F00C03082B12D18C4B5B6803
:10228C0003F48033B3F5803F0BD1894B1B6803F407
:10229C000033002B6CD07B685B68002B68D101236A
:1022AC0046E27B685B68B3F5803F06D1804B1B68C8
:1022BC007F4A43F4803313602EE07B685B68002B0D
:1022CC000CD17B4B1B687A4A23F480331360784B18
:1022DC001B68774A23F4802313601DE07B685B68DE
:1022EC00B3F5A02F0CD1724B1B68714A43F48023B9
:1022FC0013606F4B1B686E4A43F4803313600BE022
:10230C006B4B1B686A4A23F480331360684B1B6861
:10231C00674A23F4802313607B685B68002B13D01F
:10232C00FFF7B6FC386108E0FFF7B2FC02463B69E8
:10233C00D31A642B01D90323FAE15D4B1B6803F418
:10234C000033002BF0D014E0FFF7A2FC386108E05A
:10235C00FFF79EFC02463B69D31A642B01D9032379
:10236C00E6E1534B1B6803F40033002BF0D100E083
:10237C0000BF7B681B6803F00203002B63D04C4B3F
:10238C005B6803F00C03002B0BD0494B5B6803F02C
:10239C000C03082B1CD1464B5B6803F48033002BD9
:1023AC0016D1434B1B6803F00203002B05D07B684E
:1023BC001B69012B01D00123BAE13D4B1B6823F0B3
:1023CC00F8027B685B69DB00394913430B603AE028
:1023DC007B681B69002B20D0364B01221A60FFF75B
:1023EC0057FC386108E0FFF753FC02463B69D31AEF
:1023FC00022B01D903239BE12D4B1B6803F0020335
:10240C00002BF0D02A4B1B6823F0F8027B685B6929
:10241C00DB00274913430B6015E0264B00221A60A2
:10242C00FFF736FC386108E0FFF732FC02463B69E7
:10243C00D31A022B01D903237AE11D4B1B6803F03D
:10244C000203002BF0D17B681B6803F00803002B00
:10245C003AD07B689B69002B19D0174B01221A606C
:10246C00FFF716FC386108E0FFF712FC02463B69E7
:10247C00D31A022B01D903235AE10D4B5B6A03F0EB
:10248C000203002BF0D0012000F0A6FA1CE00A4B4E
:10249C0000221A60FFF7FCFB38610FE0FFF7F8FB36
:1024AC0002463B69D31A022B08D9032340E100BF33
:1024BC000010024000004242800442429E4B5B6A84
:1024CC0003F00203002BE9D17B681B6803F00403C3
:1024DC00002B00F0A6800023FB75974BDB6903F003
:1024EC008053002B0DD1944BDB69934A43F08053FE
:1024FC00D361914BDB6903F08053BB60BB68012354
:10250C00FB758E4B1B6803F48073002B18D18B4B1F
:10251C001B688A4A43F480731360FFF7B9FB386178
:10252C0008E0FFF7B5FB02463B69D31A642B01D9CF
:10253C000323FDE0814B1B6803F48073002BF0D068
:10254C007B68DB68012B06D17B4B1B6A7A4A43F014
:10255C00010313622DE07B68DB68002B0CD1764BFA
:10256C001B6A754A23F001031362734B1B6A724A90
:10257C0023F0040313621CE07B68DB68052B0CD191
:10258C006D4B1B6A6C4A43F0040313626A4B1B6A63
:10259C00694A43F0010313620BE0674B1B6A664AFE
:1025AC0023F001031362644B1B6A634A23F0040398
:1025BC0013627B68DB68002B15D0FFF769FB386171
:1025CC000AE0FFF765FB02463B69D31A41F28832F9
:1025DC00934201D90323ABE0574B1B6A03F0020370
:1025EC00002BEED014E0FFF753FB38610AE0FFF745
:1025FC004FFB02463B69D31A41F28832934201D910
:10260C00032395E04C4B1B6A03F00203002BEED125
:10261C00FB7D012B05D1484BDB69474A23F08053E6
:10262C00D3617B68DB69002B00F08180424B5B68D7
:10263C0003F00C03082B61D07B68DB69022B46D1BD
:10264C003F4B00221A60FFF723FB386108E0FFF7CD
:10265C001FFB02463B69D31A022B01D9032367E007
:10266C00354B1B6803F00073002BF0D17B681B6AA1
:10267C00B3F5803F08D1304B5B6823F400327B68A4
:10268C009B682D4913434B602B4B5B6823F47412EE
:10269C007B68196A7B685B6A0B43274913434B6061
:1026AC00274B01221A60FFF7F3FA386108E0FFF7B5
:1026BC00EFFA02463B69D31A022B01D9032337E008
:1026CC001D4B1B6803F00073002BF0D02FE01C4B4C
:1026DC0000221A60FFF7DCFA386108E0FFF7D8FA3D
:1026EC0002463B69D31A022B01D9032320E0124B7B
:1026FC001B6803F00073002BF0D118E07B68DB69DA
:10270C00012B01D1012313E00B4B5B68FB60FB68D1
:10271C0003F480327B681B6A9A4206D1FB6803F48F
:10272C0070127B685B6A9A4201D0012300E000239F
:10273C0018461837BD4680BD00100240007000409E
:10274C006000424280B584B000AF786039607B682D
:10275C00002B01D10123D0E06A4B1B6803F0070367
:10276C003A689A4210D9674B1B6823F007026549F7
:10277C003B6813430B60634B1B6803F007033A6819
:10278C009A4201D00123B8E07B681B6803F0020376
:10279C00002B20D07B681B6803F00403002B05D0B2
:1027AC00594B5B68584A43F4E06353607B681B6881
:1027BC0003F00803002B05D0534B5B68524A43F4DB
:1027CC0060535360504B5B6823F0F0027B689B684E
:1027DC004D4913434B607B681B6803F00103002BCE
:1027EC0040D07B685B68012B07D1474B1B6803F417
:1027FC000033002B15D101237FE07B685B68022B33
:10280C0007D1414B1B6803F00073002B09D1012346
:10281C0073E03D4B1B6803F00203002B01D1012335
:10282C006BE0394B5B6823F003027B685B683649CD
:10283C0013434B60FFF72CFAF8600AE0FFF728FA15
:10284C000246FB68D31A41F28832934201D9032322
:10285C0053E02D4B5B6803F00C027B685B689B00BC
:10286C009A42EBD1274B1B6803F007033A689A4254
:10287C0010D2244B1B6823F0070222493B681343F8
:10288C000B60204B1B6803F007033A689A4201D097
:10289C00012332E07B681B6803F00403002B08D093
:1028AC00194B5B6823F4E0627B68DB6816491343C1
:1028BC004B607B681B6803F00803002B09D0124B9C
:1028CC005B6823F460527B681B69DB000E49134381
:1028DC004B6000F021F802460B4B5B681B0903F0C0
:1028EC000F030A49CB5C22FA03F3094A1360094B24
:1028FC001B681846FFF78AF9002318461037BD46A7
:10290C0080BD00BF00200240001002406832000869
:10291C00640000206800002090B48AB000AF2A4BFD
:10292C003C1D0FCB84E80F0040F201233B800023B9
:10293C00FB610023BB6100237B6200237B610023CE
:10294C003B62224B5B68FB61FB6903F00C03042BBD
:10295C0002D0082B03D02DE01D4B3B622DE0FB6910
:10296C009B0C03F00F0307F12802134413F8243CCB
:10297C007B61FB6903F48033002B13D0134B5B6832
:10298C005B0C03F0010307F12802134413F8283CF5
:10299C00BB617B690E4A02FB03F2BB69B2FBF3F32A
:1029AC007B6204E07B690B4A02FB03F37B627B6A6C
:1029BC003B6202E0064B3B6200BF3B6A184628377D
:1029CC00BD4690BC704700BF583200080010024052
:1029DC0000127A0000093D0080B485B000AF786029
:1029EC000A4B1B680A4AA2FB03235B0A7A6802FBA8
:1029FC0003F3FB6000BFFB685A1EFA60002BF9D191
:102A0C0000BF00BF1437BD4680BC70476400002077
:102A1C00D34D621080B582B000AF78607B68002B1C
:102A2C0001D1012341E07B6893F83D30DBB2002BF0
:102A3C0006D17B68002283F83C207868FFF74EF8BB
:102A4C007B68022283F83D207B681A687B6804331C
:102A5C001946104600F06AFA7B68012283F846207A
:102A6C007B68012283F83E207B68012283F83F209B
:102A7C007B68012283F840207B68012283F8412087
:102A8C007B68012283F842207B68012283F8432073
:102A9C007B68012283F844207B68012283F845205F
:102AAC007B68012283F83D20002318460837BD4679
:102ABC0080BD000080B485B000AF78607B6893F86F
:102ACC003D30DBB2012B01D0012335E07B680222C3
:102ADC0083F83D207B681B68DA687B681B6842F0D2
:102AEC000102DA607B681B68164A934209D07B6846
:102AFC001B68B3F1804F04D07B681B68124A934269
:102B0C0011D17B681B689B6803F00703FB60FB68B3
:102B1C00062B10D07B681B681A687B681B6842F018
:102B2C0001021A6007E07B681B681A687B681B68E7
:102B3C0042F001021A60002318461437BD4680BCCF
:102B4C00704700BF002C01400004004080B582B0EB
:102B5C0000AF78607B681B681B6903F00203022BD3
:102B6C0022D17B681B68DB6803F00203022B1BD1AC
:102B7C007B681B686FF002021A617B6801221A776E
:102B8C007B681B689B6903F00303002B03D07868F8
:102B9C0000F0B1F905E0786800F0A4F9786800F06D
:102BAC00B3F97B6800221A777B681B681B6903F0FA
:102BBC000403042B22D17B681B68DB6803F004033D
:102BCC00042B1BD17B681B686FF004021A617B68B5
:102BDC0002221A777B681B689B6903F44073002BF5
:102BEC0003D0786800F087F905E0786800F07AF98E
:102BFC00786800F089F97B6800221A777B681B687B
:102C0C001B6903F00803082B22D17B681B68DB6867
:102C1C0003F00803082B1BD17B681B686FF00802BC
:102C2C001A617B6804221A777B681B68DB6903F0E6
:102C3C000303002B03D0786800F05DF905E0786899
:102C4C0000F050F9786800F05FF97B6800221A7781
:102C5C007B681B681B6903F01003102B22D17B6867
:102C6C001B68DB6803F01003102B1BD17B681B68FF
:102C7C006FF010021A617B6808221A777B681B6858
:102C8C00DB6903F44073002B03D0786800F033F950
:102C9C0005E0786800F026F9786800F035F97B6873
:102CAC0000221A777B681B681B6903F00103012B58
:102CBC000ED17B681B68DB6803F00103012B07D185
:102CCC007B681B686FF001021A617868FEF7A4FD3F
:102CDC007B681B681B6903F08003802B0ED17B681B
:102CEC001B68DB6803F08003802B07D17B681B68B3
:102CFC006FF080021A61786800F067FA7B681B68D5
:102D0C001B6903F04003402B0ED17B681B68DB680A
:102D1C0003F04003402B07D17B681B686FF0400227
:102D2C001A61786800F0F9F87B681B681B6903F07E
:102D3C002003202B0ED17B681B68DB6803F020037B
:102D4C00202B07D17B681B686FF020021A61786812
:102D5C0000F032FA00BF0837BD4680BD80B584B0A4
:102D6C0000AF786039607B6893F83C30012B01D15F
:102D7C000223B3E07B68012283F83C207B680222AB
:102D8C0083F83D207B681B689B68FB60FB6823F025
:102D9C007703FB60FB6823F47F43FB607B681B6855
:102DAC00FA689A603B681B68B3F5005F3ED0B3F5D8
:102DBC00005F00F28780B3F5805F00F08580B3F58B
:102DCC00805F7FD8702B1AD0702B7BD8602B50D0A3
:102DDC00602B77D8502B3CD0502B73D8402B58D02D
:102DEC00402B6FD8302B64D0302B6BD8202B60D07D
:102DFC00202B67D8002B5CD0102B5AD062E07B685C
:102E0C0018683B6899683B685A683B68DB6800F057
:102E1C005CF97B681B689B68FB60FB6843F077037D
:102E2C00FB607B681B68FA689A604EE07B681868E8
:102E3C003B6899683B685A683B68DB6800F045F969
:102E4C007B681B689A687B681B6842F480429A60B6
:102E5C003BE07B6818683B6859683B68DB681A463E
:102E6C0000F0BCF87B681B685021184600F013F981
:102E7C002BE07B6818683B6859683B68DB681A462E
:102E8C0000F0DAF87B681B686021184600F003F943
:102E9C001BE07B6818683B6859683B68DB681A461E
:102EAC0000F09CF87B681B684021184600F0F3F892
:102EBC000BE07B681A683B681B681946104600F0EB
:102ECC00EAF802E000BF00E000BF7B68012283F853
:102EDC003D207B68002283F83C20002318461037E5
:102EEC00BD4680BD80B483B000AF786000BF0C37A6
:102EFC00BD4680BC704780B483B000AF786000BF23
:102F0C000C37BD4680BC704780B483B000AF78608E
:102F1C0000BF0C37BD4680BC704780B483B000AF97
:102F2C00786000BF0C37BD4680BC704780B485B05C
:102F3C0000AF786039607B681B68FB607B68254A52
:102F4C00934207D07B68B3F1804F03D07B68224A51
:102F5C00934208D1FB6823F07003FB603B685B680D
:102F6C00FA681343FB607B681A4A934207D07B686C
:102F7C00B3F1804F03D07B68174A934208D1FB68AA
:102F8C0023F44073FB603B68DB68FA681343FB6017
:102F9C00FB6823F080023B685B691343FB607B6832
:102FAC00FA681A603B689A687B68DA623B681A6850
:102FBC007B689A627B68074A934203D13B681A6923
:102FCC007B681A637B6801225A6100BF1437BD46C7
:102FDC0080BC7047002C01400004004080B487B0D6
:102FEC0000AFF860B9607A60FB681B6A7B61FB68B4
:102FFC001B6A23F00102FB681A62FB689B693B6148
:10300C003B6923F0F0033B617B681B013A69134376
:10301C003B617B6923F00A037B617A69BB681343CC
:10302C007B61FB683A699A61FB687A691A6200BF36
:10303C001C37BD4680BC704780B487B000AFF860C9
:10304C00B9607A60FB681B6A23F01002FB681A6295
:10305C00FB689B697B61FB681B6A3B617B6923F4A2
:10306C0070437B617B681B037A6913437B613B690B
:10307C0023F0A0033B61BB681B013A6913433B611E
:10308C00FB687A699A61FB683A691A6200BF1C375F
:10309C00BD4680BC704780B485B000AF78603960A5
:1030AC007B689B68FB60FB6823F07003FB603A68ED
:1030BC00FB68134343F00703FB607B68FA689A6074
:1030CC0000BF1437BD4680BC704780B487B000AFDA
:1030DC00F860B9607A603B60FB689B687B617B69D8
:1030EC0023F47F437B613B681A027B681A43BB68FD
:1030FC0013437A6913437B61FB687A699A6000BF5A
:10310C001C37BD4680BC704780B485B000AF78607A
:10311C0039607B6893F83C30012B01D1022341E0EC
:10312C007B68012283F83C207B68022283F83D20D7
:10313C007B681B685B68FB607B681B689B68BB607B
:10314C00FB6823F07003FB603B681B68FA68134351
:10315C00FB607B681B68FA685A607B681B68144AC2
:10316C00934209D07B681B68B3F1804F04D07B6815
:10317C001B68104A93420CD1BB6823F08003BB60E0
:10318C003B685B68BA681343BB607B681B68BA68B2
:10319C009A607B68012283F83D207B68002283F8CB
:1031AC003C20002318461437BD4680BC704700BF36
:1031BC00002C01400004004080B483B000AF786064
:1031CC0000BF0C37BD4680BC704780B483B000AFE5
:1031DC00786000BF0C37BD4680BC704770B50026C8
:1031EC000C4D0D4C641BA410A64209D100F022F822
:1031FC0000260A4D0A4C641BA410A64205D170BDD2
:10320C0055F8043B98470136EEE755F8043B9847D0
:10321C000136F2E77832000878320008783200087C
:10322C007C32000803460244934200D1704703F8F5
:10323C00011BF9E7F8B500BFF8BC08BC9E46704707
:0C324C00F8B500BFF8BC08BC9E467047F7
:1032580002030405060708090A0B0C0D0E0F1010CF
:10326800000000000000000001020304060708092E
:043278003101000818
:04327C000D01000838
:10328000010000000100000001000000010000003A
:10329000010000000100000001000000010000002A
:1032A000010000000100000001000000010000001A
:1032B0000A000000050000000300000002000000FA
:1032C00005000000030000000200000002000000F2
:1032D00001000000020000000300000004000000E4
:1032E000010000000024F4001000000001000000B4
:0400000508001BA133
:00000001FF
