:020000040800F2
:1000000000280020051B0008951A00089B1A00080C
:10001000A11A0008A71A0008AD1A00080000000085
:10002000000000000000000000000000B31A0008FB
:10003000BF1A000800000000CB1A0008D71A0008F9
:100040004D1B00084D1B00084D1B00084D1B0008F0
:100050004D1B00084D1B00084D1B00084D1B0008E0
:100060004D1B00084D1B00084D1B00084D1B0008D0
:100070004D1B00084D1B00084D1B00084D1B0008C0
:100080004D1B00084D1B00084D1B00084D1B0008B0
:100090004D1B00084D1B00084D1B00084D1B0008A0
:1000A0004D1B00084D1B00084D1B00084D1B000890
:1000B000E51A00084D1B0008000000004D1B000859
:1000C0004D1B000800000000000000004D1B000850
:1000D000000000004D1B00084D1B00080000000040
:1000E0004D1B00084D1B00084D1B000800000000C0
:1000F0000000000000000000000000000000000000
:0C01000000000000000000005FF808F1A3
:10010C0010B5054C237833B9044B13B10448AFF345
:10011C0000800123237010BD580000200000000057
:10012C00A431000808B5034B1BB103490348AFF3D6
:10013C00008008BD000000005C000020A431000815
:10014C0080B400AF064B1B68012B04D1044B00227A
:10015C001A60012300E000231846BD4680BC70479E
:10016C007400002080B400AF064B1B68012B04D137
:10017C00044B00221A60012300E000231846BD4600
:10018C0080BC70477800002080B400AF064B1B6821
:10019C00012B04D1044B00221A60012300E0002340
:1001AC001846BD4680BC70477C00002080B400AF70
:1001BC00034B01221A6000BFBD4680BC704700BFD4
:1001CC007400002080B400AF034B01221A6000BF02
:1001DC00BD4680BC704700BF7800002080B400AFE3
:1001EC00034B01221A6000BFBD4680BC704700BFA4
:1001FC007C00002080B500AF224B1B68224A1360A4
:10020C00224B1B681F4A13604FF40051204801F029
:10021C0083FF03461A461D4B1A601A4B1A681B4B78
:10022C001B689A422BD1174B1A68174B1B689A42C2
:10023C0025D1154B1A68174B1B689A420DD0124BDF
:10024C001B68144A1360104B1B68002B17D1124B00
:10025C0064221A60FFF7AAFF11E00F4B1B68013BE9
:10026C000D4A13600C4B1B68002B08D1064B1B6806
:10027C00002B01D1FFF79AFF074B64221A6000BFD5
:10028C0080BD00BF040000200800002000000020FA
:10029C00001001400C0000203000002080B500AFA1
:1002AC00224B1B68224A1360224B1B681F4A1360A7
:1002BC004FF40041204801F02FFF03461A461D4B16
:1002CC001A601A4B1A681B4B1B689A422BD1174B9E
:1002DC001A68174B1B689A4225D1154B1A68174B95
:1002EC001B689A420DD0124B1B68144A1360104BBA
:1002FC001B68002B17D1124B64221A60FFF76EFF9C
:10030C0011E00F4B1B68013B0D4A13600C4B1B6833
:10031C00002B08D1064B1B68002B01D1FFF75EFFA9
:10032C00074B64221A6000BF80BD00BF2400002070
:10033C002800002020000020001001402C0000208C
:10034C003000002080B500AF224B1B68224A13609E
:10035C00224B1B681F4A13604FF48041204801F068
:10036C00DBFE03461A461D4B1A601A4B1A681B4BD0
:10037C001B689A422BD1174B1A68174B1B689A4271
:10038C0025D1154B1A68174B1B689A420DD0124B8E
:10039C001B68144A1360104B1B68002B17D1124BAF
:1003AC0064221A60FFF70EFF11E00F4B1B68013B34
:1003BC000D4A13600C4B1B68002B08D1064B1B68B5
:1003CC00002B01D1FFF7FEFE074B64221A6000BF21
:1003DC0080BD00BF14000020180000201000002079
:1003EC00001001401C0000203000002080B582B0BD
:1003FC0000AF78607B68002B22D100220121BD4820
:10040C0001F0A1FE00220221BA4801F09CFE00225C
:10041C000421B84801F097FE00220821B54801F0EC
:10042C0092FE00221021B34801F08DFE0022202103
:10043C00B04801F088FE01224021AE4801F083FE55
:10044C007B68012B22D101220121AA4801F07BFEFD
:10045C0000220221A74801F076FE00220421A548C3
:10046C0001F071FE01220821A24801F06CFE01226C
:10047C001021A04801F067FE012220219D4801F0C7
:10048C0062FE012240219B4801F05DFE7B68022B3D
:10049C0022D100220121974801F055FE00220221B1
:1004AC00944801F050FE01220421924801F04BFEC9
:1004BC00002208218F4801F046FE002210218D48B1
:1004CC0001F041FE012220218A4801F03CFE00226D
:1004DC004021884801F037FE7B68032B22D1002293
:1004EC000121844801F02FFE00220221814801F0F5
:1004FC002AFE002204217F4801F025FE002208215B
:10050C007C4801F020FE012210217A4801F01BFEEC
:10051C0001222021774801F016FE00224021754867
:10052C0001F011FE7B68042B22D1012201217148BC
:10053C0001F009FE002202216E4801F004FE0022A7
:10054C0004216C4801F0FFFD01220821694801F0EB
:10055C00FAFD01221021674801F0F5FD002220214F
:10056C00644801F0F0FD00224021624801F0EBFDEF
:10057C007B68052B22D1002201215E4801F0E3FDAE
:10058C00012202215B4801F0DEFD002204215948C2
:10059C0001F0D9FD00220821564801F0D4FD0122BA
:1005AC001021544801F0CFFD00222021514801F0C8
:1005BC00CAFD002240214F4801F0C5FD7B68062B87
:1005CC0022D1002201214B4801F0BDFD0122022164
:1005DC00484801F0B8FD00220421464801F0B3FD63
:1005EC0000220821434801F0AEFD002210214148B1
:1005FC0001F0A9FD002220213E4801F0A4FD0022BB
:10060C0040213C4801F09FFD7B68072B22D1002242
:10061C000121384801F097FD00220221354801F0F4
:10062C0092FD00220421334801F08DFD01220821A6
:10063C00304801F088FD012210212E4801F083FD85
:10064C00012220212B4801F07EFD01224021294866
:10065C0001F079FD7B68082B22D10022012125486D
:10066C0001F071FD00220221224801F06CFD0022F4
:10067C000421204801F067FD002208211D4801F0EB
:10068C0062FD002210211B4801F05DFD002220219B
:10069C00184801F058FD00224021164801F053FD86
:1006AC007B68092B22D100220121124801F04BFD5D
:1006BC00002202210F4801F046FD002204210D48C2
:1006CC0001F041FD002208210A4801F03CFD012205
:1006DC001021084801F037FD00222021054801F0C7
:1006EC0032FD00224021034801F02DFD00BF0837E8
:1006FC00BD4680BD000C014080B582B000AF786073
:10070C007B68002B28D100228021D24801F01BFDF0
:10071C0000224FF48071CF4801F015FD00224FF4F8
:10072C000071CC4801F00FFD00224FF48061C948E4
:10073C0001F009FD00224FF40061C64801F003FDF1
:10074C0000224FF48051C34801F0FDFC01224FF40C
:10075C000051C04801F0F7FC7B68012B28D1012225
:10076C008021BC4801F0EFFC00224FF48071B948A5
:10077C0001F0E9FC00224FF40071B64801F0E3FCF3
:10078C0001224FF48061B34801F0DDFC01224FF4EB
:10079C000061B04801F0D7FC01224FF48051AD4804
:1007AC0001F0D1FC01224FF40051AA4801F0CBFC1E
:1007BC007B68022B28D100228021A64801F0C3FCC3
:1007CC0000224FF48071A34801F0BDFC01224FF4CC
:1007DC000071A04801F0B7FC00224FF480619D48E5
:1007EC0001F0B1FC00224FF400619A4801F0ABFC1F
:1007FC0001224FF48051974801F0A5FC00224FF4E0
:10080C000051944801F09FFC7B68032B28D10022F7
:10081C008021904801F097FC00224FF480718D48A4
:10082C0001F091FC00224FF400718A4801F08BFC1E
:10083C0000224FF48061874801F085FC01224FF4BF
:10084C000061844801F07FFC01224FF48051814803
:10085C0001F079FC00224FF400517E4801F073FC4A
:10086C007B68042B28D1012280217A4801F06BFC93
:10087C0000224FF48071774801F065FC00224FF4A0
:10088C000071744801F05FFC01224FF480617148E3
:10089C0001F059FC01224FF400616E4801F053FC49
:1008AC0000224FF480516B4801F04DFC00224FF4B4
:1008BC000051684801F047FC7B68052B28D10022C9
:1008CC008021644801F03FFC01224FF480716148A3
:1008DC0001F039FC00224FF400715E4801F033FC4A
:1008EC0000224FF480615B4801F02DFC01224FF493
:1008FC000061584801F027FC00224FF48051554804
:10090C0001F021FC00224FF40051524801F01BFC75
:10091C007B68062B28D1002280214E4801F013FC65
:10092C0001224FF480714B4801F00DFC00224FF472
:10093C000071484801F007FC00224FF480614548E3
:10094C0001F001FC00224FF40061424801F0FBFB76
:10095C0000224FF480513F4801F0F5FB00224FF488
:10096C0000513C4801F0EFFB7B68072B28D100229B
:10097C008021384801F0E7FB00224FF480713548A4
:10098C0001F0E1FB00224FF40071324801F0DBFB77
:10099C0001224FF480612F4801F0D5FB01224FF466
:1009AC0000612C4801F0CFFB01224FF48051294803
:1009BC0001F0C9FB01224FF40051264801F0C3FBA2
:1009CC007B68082B28D100228021224801F0BBFB38
:1009DC0000224FF480711F4801F0B5FB00224FF448
:1009EC0000711C4801F0AFFB00224FF480611948E4
:1009FC0001F0A9FB00224FF40061164801F0A3FBA3
:100A0C0000224FF48051134801F09DFB00224FF45B
:100A1C000051104801F097FB7B68092B2BD1002269
:100A2C0080210C4801F08FFB00224FF480710948A3
:100A3C0001F089FB00224FF40071064801F083FBA2
:100A4C0000224FF48061034801F07DFB01224FF43A
:100A5C00006101E0000C0140094801F074FB002228
:100A6C004FF48051064801F06EFB00224FF4005108
:100A7C00034801F068FB00BF0837BD4680BD00BFCE
:100A8C00000C014080B582B000AF78607B68002B11
:100A9C0029D100224FF40071D34801F054FB0022FD
:100AAC004FF48061D04801F04EFB00224FF40061FE
:100ABC00CD4801F048FB00224FF48051CA4801F0A8
:100ACC0042FB00224FF40051C74801F03CFB0022CE
:100ADC004FF48041C44801F036FB01224FF4004131
:100AEC00C14801F030FB7B68012B29D101224FF466
:100AFC000071BD4801F027FB00224FF48061BA4819
:100B0C0001F021FB00224FF40061B74801F01BFB00
:100B1C0001224FF48051B44801F015FB01224FF42F
:100B2C000051B14801F00FFB01224FF48041AE4857
:100B3C0001F009FB01224FF40041AB4801F003FB2B
:100B4C007B68022B29D100224FF40071A64801F0DA
:100B5C00FAFA00224FF48061A34801F0F4FA012262
:100B6C004FF40061A04801F0EEFA00224FF48051DE
:100B7C009D4801F0E8FA00224FF400519A4801F028
:100B8C00E2FA01224FF48041974801F0DCFA00228E
:100B9C004FF40041944801F0D6FA7B68032B29D11D
:100BAC0000224FF40071904801F0CDFA00224FF46E
:100BBC0080618D4801F0C7FA00224FF400618A4829
:100BCC0001F0C1FA00224FF48051874801F0BBFAC2
:100BDC0001224FF40051844801F0B5FA01224FF480
:100BEC008041814801F0AFFA00224FF400417E4869
:100BFC0001F0A9FA7B68042B29D101224FF4007172
:100C0C00794801F0A0FA00224FF48061764801F097
:100C1C009AFA00224FF40061734801F094FA012211
:100C2C004FF48051704801F08EFA01224FF40051BC
:100C3C006D4801F088FA00224FF480416A4801F0B7
:100C4C0082FA00224FF40041674801F07CFA7B687D
:100C5C00052B29D100224FF40071634801F073FA7F
:100C6C0001224FF48061604801F06DFA00224FF4CC
:100C7C0000615D4801F067FA00224FF480515A4838
:100C8C0001F061FA01224FF40051574801F05BFA70
:100C9C0000224FF48041544801F055FA00224FF4E1
:100CAC000041514801F04FFA7B68062B29D10022F4
:100CBC004FF400714C4801F046FA01224FF4806168
:100CCC00494801F040FA00224FF40061464801F017
:100CDC003AFA00224FF48051434801F034FA0022D2
:100CEC004FF40051404801F02EFA00224FF480419D
:100CFC003D4801F028FA00224FF400413A4801F037
:100D0C0022FA7B68072B29D100224FF40071364858
:100D1C0001F019FA00224FF48061334801F013FA04
:100D2C0000224FF40061304801F00DFA01224FF41B
:100D3C0080512D4801F007FA01224FF400512A4846
:100D4C0001F001FA01224FF48041274801F0FBF930
:100D5C0001224FF40041244801F0F5F97B68082B7F
:100D6C0029D100224FF400711F4801F0ECF9002248
:100D7C004FF480611C4801F0E6F900224FF4006149
:100D8C00194801F0E0F900224FF48051164801F0A7
:100D9C00DAF900224FF40051134801F0D4F9002283
:100DAC004FF48041104801F0CEF900224FF400417D
:100DBC000D4801F0C8F97B68092B2CD100224FF4A7
:100DCC000071094801F0BFF900224FF48061064818
:100DDC0001F0B9F900224FF40061034801F0B3F9B6
:100DEC0000224FF4805101E0000801400C4801F052
:100DFC00AAF901224FF40051094801F0A4F900228C
:100E0C004FF48041064801F09EF900224FF4004156
:100E1C00034801F098F900BF0837BD4680BD00BFFC
:100E2C000008014080B500AF8A4B1B68013B032BC7
:100E3C0000F2068101A252F823F000BF590E0008FF
:100E4C007D0E0008190F0008B30F0008814B022219
:100E5C001A60814B1B68642202FB03F3184600F0F6
:100E6C0017FD642000F028FD0120FFF745FCEEE0A3
:100E7C000120FFF741FC794B1B68002B03D1764B0B
:100E8C001B68764A1360754B1B681846FFF7AEFA61
:100E9C00734B1B68012B07D1704B1B68013B6F4ACE
:100EAC001360642000F008FD002240216D4801F021
:100EBC004AF9012280216B4801F045F901224FF4D7
:100ECC008071684801F03FF9674B1B68012B10D10A
:100EDC00604B03221A60654B1B68642202FB03F310
:100EEC00184600F0D5FC624B00221A60642000F01A
:100EFC00E3FCFFF725F90346012B40F0A380554B8B
:100F0C000C221A60322000F0D7FC9BE00120FFF786
:100F1C00F3FB574B1B68002B03D1544B1B68544AF3
:100F2C001360534B1B681846FFF760FA4C4B1B6859
:100F3C00012B07D14E4B1B68013B4D4A13606420BB
:100F4C0000F0BAFC01224021464801F0FCF80022D6
:100F5C008021444801F0F7F801224FF48071414898
:100F6C0001F0F1F8404B1B68012B10D1394B0422D6
:100F7C001A60404B00221A603F4B1B68642202FB34
:100F8C0003F3184600F084FC642000F095FCFFF796
:100F9C00D7F80346012B57D12E4B0C221A60322066
:100FAC0000F08AFC50E00120FFF7A6FB314B1B68D8
:100FBC00002B03D1304B1B682E4A13602D4B1B6842
:100FCC001846FFF713FA264B1B68012B07D1294B48
:100FDC001B68013B274A1360642000F06DFC012262
:100FEC004021204801F0AFF8012280211D4801F07A
:100FFC00AAF800224FF480711A4801F0A4F81A4B99
:10100C001B68012B10D1134B02221A60134B0022C8
:10101C001A60114B1B68642202FB03F3184600F0A4
:10102C0037FC642000F048FCFFF78AF80346012BDC
:10103C000CD1084B0C221A60322000F03DFC05E06C
:10104C0000BF04E000BF02E000BF00E000BF00BF33
:10105C0080BD00BF800000203400002088000020EC
:10106C00B400002000080140B0000020380000202F
:10107C008C000020900000203C00002080B500AFC8
:10108C00814B1B68013B032B00F2F48001A252F848
:10109C0023F000BFB1100008CF1000086111000848
:1010AC00F1110008784B03221A60784B1B686422FC
:1010BC0002FB03F3184600F013FC642000F024FC40
:1010CC00DFE0734B1B68002B03D1724B1B68704A1B
:1010DC0013606F4B1B681846FFF7D4FC6E4B1B68F4
:1010EC00012B07D16A4B1B68013B694A13606420D2
:1010FC0000F00AFC00220421684801F024F80122C7
:10110C000821664801F01FF801221021634801F004
:10111C001AF8634B1B68012B10D15B4B03221A602E
:10112C00604B1B68642202FB03F3184600F0D8FBEB
:10113C005D4B00221A60642000F0E6FB5B4B1B68E1
:10114C000C2B40F09980504B0C221A60322000F08E
:10115C00DBFB91E0544B1B68002B03D1514B1B68FC
:10116C00514A1360504B1B681846FFF78BFC4A4BD7
:10117C001B68012B07D14C4B1B68013B4A4A13607F
:10118C00642000F0C1FB01220421444800F0DBFF85
:10119C0000220821414800F0D6FF012210213F48CF
:1011AC0000F0D1FF3E4B1B68012B10D1364B0422B3
:1011BC001A603F4B00221A603E4B1B68642202FBF4
:1011CC0003F3184600F08CFB642000F09DFB374BBA
:1011DC001B680C2B52D12C4B0C221A60322000F0C5
:1011EC0093FB4BE0324B1B68002B03D1314B1B683C
:1011FC002F4A13602E4B1B681846FFF743FC264BF7
:10120C001B68012B07D12A4B1B68013B284A136032
:10121C00642000F079FB01220421204800F093FFA8
:10122C00012208211D4800F08EFF002210211B48CE
:10123C0000F089FF1A4B1B68012B10D1124B0222B4
:10124C001A60134B00221A60124B1B68642202FBBB
:10125C0003F3184600F044FB642000F055FB0A4BE6
:10126C001B680C2B0CD1084B0C221A60322000F09E
:10127C004BFB05E000BF04E000BF02E000BF00E054
:10128C0000BF00BF80BD00BF8400002038000020DC
:10129C009400002040000020BC0000200008014009
:1012AC00B80000204400002098000020800000209E
:1012BC009C0000204800002080B500AF954B1B68B7
:1012CC000E2B00F0C1800E2B00F31A810C2B02D0D8
:1012DC000D2B5DD014E10220FFF70EFA8E4B1B682C
:1012EC001846FFF783F8012280218C4800F02BFF71
:1012FC0001224FF48071894800F025FF884B1B6850
:10130C00012B06D14021854800F035FF322000F03A
:10131C00D3FAFEF715FF0346012B05D17D4B0D22A9
:10132C001A60804B0D221A60FEF71CFF0346012B3E
:10133C0009D1794B1B680133774A13607A4B1B68D0
:10134C000133794A1360FEF71FFF0346012B40F06F
:10135C00D980704B02221A60724B03221A60734BB5
:10136C0000221A60724B00221A606B4B1B68013B07
:10137C00642202FB03F3184600F08AFA6D4B1B68DB
:10138C00013B642202FB03F3184600F0A9FAB9E012
:10139C000320FFF7B1F9684B1B681846FFF726F8D6
:1013AC00012240215D4800F0CEFE01224FF48071F5
:1013BC005A4800F0C8FE5A4B1B68012B06D18021FD
:1013CC00564800F0D8FE322000F076FAFEF7B8FE50
:1013DC000346012B05D14F4B0E221A60514B0E22A6
:1013EC001A60FEF7BFFE0346012B09D1524B1B6856
:1013FC000133514A13604F4B1B6801334D4A136044
:10140C00FEF7C2FE0346012B7ED1424B02221A602C
:10141C00444B03221A60454B00221A60444B0022B5
:10142C001A603D4B1B68013B642202FB03F3184618
:10143C0000F02EFA3F4B1B68013B642202FB03F3C6
:10144C00184600F04DFA5FE00420FFF755F93B4BCE
:10145C001B681846FEF7CAFF012240212F4800F0F6
:10146C0072FE012280212D4800F06DFE2C4B1B6872
:10147C00012B07D14FF48071284800F07CFE3220FC
:10148C0000F01AFAFEF75CFE0346012B05D1214B46
:10149C000C221A60234B0C221A60FEF763FE0346E3
:1014AC00012B09D1254B1B680133244A1360244BB3
:1014BC001B680133224A1360FEF766FE0346012BBC
:1014CC0024D1144B02221A60164B03221A60174BBC
:1014DC0000221A60164B00221A600F4B1B68013B4E
:1014EC00642202FB03F3184600F0D2F9114B1B687F
:1014FC00013B642202FB03F3184600F0F1F905E00E
:10150C0000BF04E000BF02E000BF00E000BF00BF6E
:10151C0080BD00BF80000020340000200008014086
:10152C00B40000208400002040000020880000202F
:10153C009800002044000020380000203C000020CF
:10154C004800002080B500AF324B1B680E2B3CD0FE
:10155C000E2B55DC0C2B02D00D2B1BD050E02E4B40
:10156C001B681846FFF78EFA012208212B4800F061
:10157C00EAFD01221021294800F0E5FD284B1B68EB
:10158C00012B3FD10421254800F0F5FD322000F05D
:10159C00BBF937E0234B1B681846FFF773FA01229F
:1015AC0004211E4800F0CFFD012210211B4800F041
:1015BC00CAFD1B4B1B68012B26D10821174800F0D4
:1015CC00DAFD322000F0A0F91EE0174B1B6818461C
:1015DC00FFF758FA01220421104800F0B4FD012253
:1015EC0008210E4800F0AFFD0D4B1B68012B0DD1EF
:1015FC0010210A4800F0BFFD322000F085F905E00B
:10160C0000BF04E000BF02E000BF00E000BF00BF6D
:10161C0080BD00BF84000020400000200008014075
:10162C00BC000020440000204800002080B500AF22
:10163C0000F088FA00F01CF800F0A2F800F054F862
:10164C00084801F0E9F9084B01221A60074B012206
:10165C001A60FFF7E7FBFFF72FFEFFF70FFDFFF711
:10166C0071FFF6E7C00000208000002084000020FD
:10167C0080B590B000AF07F118032822002118465E
:10168C0001F082FD3B1D00221A605A609A60DA60FC
:10169C001A610223BB610123BB621023FB6200238E
:1016AC007B6307F11803184600F07EFD0346002B00
:1016BC0001D000F0E7F80F237B600023BB60002310
:1016CC00FB6000233B6100237B613B1D002118461E
:1016DC0000F0EAFF0346002B01D000F0D3F800BF66
:1016EC004037BD4680BD000080B586B000AF07F125
:1016FC00080300221A605A609A60DA603B460022A6
:10170C001A605A601D4B4FF080421A601B4B41F619
:10171C003F725A60194B00229A60184B0922DA600A
:10172C00164B00221A61154B00229A61134801F0E6
:10173C0023F90346002B01D000F0A4F84FF480539A
:10174C00BB6007F1080319460C4801F0B9FA0346CF
:10175C00002B01D000F096F800233B6000237B6047
:10176C003B461946054801F081FC0346002B01D08D
:10177C0000F088F800BF1837BD4680BDC0000020BF
:10178C0080B588B000AF07F1100300221A605A60D0
:10179C009A60DA602F4B9B692E4A43F010039361D9
:1017AC002C4B9B6903F01003FB60FB68294B9B6976
:1017BC00284A43F004039361264B9B6903F004030E
:1017CC00BB60BB68234B9B69224A43F008039361BF
:1017DC00204B9B6903F008037B607B6800224FF66B
:1017EC00FC711D4800F0AFFC002243F6FF711B4852
:1017FC0000F0A9FC4FF460433B6100237B610123A3
:10180C00BB6107F110031946154800F00BFB4FF6AE
:10181C00FC733B6101237B610023BB610223FB61F1
:10182C0007F1100319460C4800F0FCFA43F6FF735D
:10183C003B6101237B610023BB610223FB6107F148
:10184C0010031946054800F0EDFA00BF2037BD46DD
:10185C0080BD00BF0010024000080140000C014098
:10186C000010014080B582B000AF786000F060F8E5
:10187C00FEF7C0FCFEF766FDFEF710FD00BF083753
:10188C00BD4680BD80B400AF72B600BFFEE700005D
:10189C0080B483B000AF7860054A7B681360054B59
:1018AC0000221A6000BF0C37BD4680BC704700BFD9
:1018BC00AC000020B000002080B483B000AF786092
:1018CC00054A7B681360054B00221A6000BF0C3779
:1018DC00BD4680BC704700BFA8000020B4000020AB
:1018EC0080B483B000AF7860054A7B681360054B09
:1018FC0000221A6000BF0C37BD4680BC704700BF89
:10190C00A4000020B800002080B483B000AF786041
:10191C00054A7B681360054B00221A6000BF0C3728
:10192C00BD4680BC704700BFA0000020BC0000205A
:10193C0080B400AF214B1B68002B0BDD1F4B1B68C9
:10194C00013B1E4A13601D4B1B68002B02DC1C4B19
:10195C0001221A601B4B1B68002B0BDD194B1B68FB
:10196C00013B184A1360174B1B68002B02DC164B0B
:10197C0001221A60154B1B68002B0BDD134B1B68E7
:10198C00013B124A1360114B1B68002B02DC104BFD
:10199C0001221A600F4B1B68002B0BDD0D4B1B68D3
:1019AC00013B0C4A13600B4B1B68002B02DC0A4BEF
:1019BC0001221A6000BFBD4680BC7047AC000020FD
:1019CC00B0000020A8000020B4000020A4000020DB
:1019DC00B8000020A0000020BC00002080B485B01E
:1019EC0000AF154B9B69144A43F001039361124BF2
:1019FC009B6903F00103BB60BB680F4BDB690E4AAC
:101A0C0043F08053D3610C4BDB6903F080537B6054
:101A1C007B680A4B5B68FB60FB6823F0E063FB6050
:101A2C00FB6843F08063FB60044AFB68536000BFB3
:101A3C001437BD4680BC70470010024000000140C6
:101A4C0080B584B000AF78607B681B68B3F1804FC1
:101A5C0013D10C4BDB690B4A43F00103D361094BE7
:101A6C00DB6903F00103FB60FB68002200211C20F2
:101A7C0000F0A1F91C2000F0BAF900BF1037BD46E8
:101A8C0080BD00BF0010024080B400AFFEE780B400
:101A9C0000AFFEE780B400AFFEE780B400AFFEE716
:101AAC0080B400AFFEE780B400AF00BFBD4680BC81
:101ABC00704780B400AF00BFBD4680BC704780B497
:101ACC0000AF00BFBD4680BC704780B500AF00F0D2
:101ADC007FF800BF80BD000080B500AF024800F069
:101AEC00E7FF00BF80BD00BFC000002080B400AF86
:101AFC0000BFBD4680BC70470C480D490D4A002301
:101B0C0002E0D458C4500433C4188C42F9D30A4AA6
:101B1C000A4C002301E013600432A242FBD3FFF70E
:101B2C00E5FF01F00DFBFFF781FD70470000002081
:101B3C0058000020E4310008580000200C0100205F
:101B4C00FEE7000080B500AF084B1B68074A43F066
:101B5C0010031360032000F023F90F2000F008F8A5
:101B6C00FFF73CFF0023184680BD00BF0020024059
:101B7C0080B582B000AF7860124B1A68124B1B789C
:101B8C0019464FF47A73B3FBF1F3B2FBF3F3184637
:101B9C0000F03BF90346002B01D001230EE07B68DB
:101BAC000F2B0AD8002279684FF0FF3000F003F9B0
:101BBC00064A7B681360002300E0012318460837AF
:101BCC00BD4680BD4C000020540000205000002079
:101BDC0080B400AF054B1B781A46054B1B681344A9
:101BEC00034A136000BFBD4680BC70475400002000
:101BFC000801002080B400AF024B1B681846BD469C
:101C0C0080BC70470801002080B485B000AF7860BC
:101C1C007B6803F00703FB600C4BDB68BB60BA68A6
:101C2C004FF6FF031340BB60FB681A02BB681343FB
:101C3C0043F0BF6343F40033BB60044ABB68D3601A
:101C4C0000BF1437BD4680BC704700BF00ED00E0FC
:101C5C0080B400AF044BDB681B0A03F00703184683
:101C6C00BD4680BC704700BF00ED00E080B483B07F
:101C7C0000AF0346FB7197F90730002B0BDBFB79A8
:101C8C0003F01F02064997F907305B09012000FA9F
:101C9C0002F241F8232000BF0C37BD4680BC7047D0
:101CAC0000E100E080B483B000AF03463960FB7103
:101CBC0097F90730002B0ADB3B68DAB20C4997F92D
:101CCC0007301201D2B20B4483F800230AE03B68C0
:101CDC00DAB20849FB7903F00F03043B1201D2B2CC
:101CEC000B441A7600BF0C37BD4680BC704700BF52
:101CFC0000E100E000ED00E080B489B000AFF860D6
:101D0C00B9607A60FB6803F00703FB61FB69C3F100
:101D1C000703042B28BF0423BB61FB690433062B88
:101D2C0002D9FB69033B00E000237B614FF0FF32DB
:101D3C00BB6902FA03F3DA43BB681A407B699A4029
:101D4C004FF0FF317B6901FA03F3D9437B680B40F9
:101D5C00134318462437BD4680BC704780B582B00B
:101D6C0000AF78607B68013BB3F1807F01D3012326
:101D7C000FE00A4A7B68013B53600F214FF0FF30A4
:101D8C00FFF790FF054B00229A60044B07221A6064
:101D9C00002318460837BD4680BD00BF10E000E0A8
:101DAC0080B582B000AF78607868FFF72DFF00BF78
:101DBC000837BD4680BD80B586B000AF0346B9601C
:101DCC007A60FB7300237B61FFF742FF78617A68CE
:101DDC00B9687869FFF790FF024697F90F30114602
:101DEC001846FFF75FFF00BF1837BD4680BD80B5B2
:101DFC0082B000AF0346FB7197F907301846FFF726
:101E0C0035FF00BF0837BD4680BD80B582B000AF3E
:101E1C0078607868FFF7A2FF034618460837BD467E
:101E2C0080BD000080B48BB000AF786039600023B7
:101E3C007B6200233B6248E101227B6A02FA03F3D6
:101E4C00FB613B681B68FA691340BB61BA69FB69AB
:101E5C009A4240F037813B685B68A34A93425ED05C
:101E6C00A14A934275D8A14A934258D09F4A9342B3
:101E7C006FD89F4A934252D09D4A934269D89D4A4B
:101E8C0093424CD09B4A934263D89B4A934246D090
:101E9C00994A93425DD8122B2AD8122B59D801A2F9
:101EAC0052F823F02B1F0008051F0008171F00080D
:101EBC00591F00085F1F00085F1F00085F1F000804
:101ECC005F1F00085F1F00085F1F00085F1F0008EE
:101EDC005F1F00085F1F00085F1F00085F1F0008DE
:101EEC005F1F00085F1F00080D1F0008211F00085E
:101EFC00824A934213D02CE03B68DB683B6229E0BA
:101F0C003B68DB6804333B6224E03B68DB680833E6
:101F1C003B621FE03B68DB680C333B621AE03B68BA
:101F2C009B68002B02D104233B6213E03B689B6847
:101F3C00012B05D108233B627B68FA691A6109E021
:101F4C0008233B627B68FA695A6103E000233B6219
:101F5C0000E000BFBB69FF2B01D87B6801E07B6808
:101F6C0004337B61BB69FF2B02D87B6A9B0002E0C8
:101F7C007B6A083B9B003B617B691A680F213B69BC
:101F8C0001FA03F3DB431A40396A3B6901FA03F3A4
:101F9C001A437B691A603B685B6803F08053002B23
:101FAC0000F09080564B9B69554A43F001039361B6
:101FBC00534B9B6903F00103BB60BB68514A7B6ABE
:101FCC009B08023352F82330FB607B6A03F0030357
:101FDC009B000F2202FA03F3DB43FA681340FB6009
:101FEC007B68494A93420DD07B68484A934207D09C
:101FFC007B68474A934201D1022304E0032302E0A9
:10200C00012300E000237A6A02F00302920093405D
:10201C00FA681343FB603B497B6A9B080233FA68FE
:10202C0041F823203B685B6803F48033002B06D017
:10203C00384B1A683749BB6913430B6006E0354BC4
:10204C001A68BB69DB43334913400B603B685B6820
:10205C0003F40033002B06D02E4B5A682D49BB6974
:10206C0013434B6006E02B4B5A68BB69DB43294991
:10207C0013404B603B685B6803F48013002B06D065
:10208C00244B9A682349BB6913438B6006E0214BB0
:10209C009A68BB69DB431F4913408B603B685B68E4
:1020AC0003F40013002B06D01A4BDA681949BB69EC
:1020BC001343CB6006E0174BDA68BB69DB43154969
:1020CC001340CB607B6A01337B623B681A687B6A86
:1020DC0022FA03F3002B7FF4AFAE00BF00BF2C3706
:1020EC00BD4680BC704700BF0000321000003110AC
:1020FC00000022100000211000001210000011102E
:10210C00001002400000014000080140000C01409A
:10211C00001001400004014080B485B000AF78602D
:10212C000B467B807B689A687B881340002B02D01F
:10213C000123FB7301E00023FB73FB7B1846143770
:10214C00BD4680BC704780B483B000AF78600B464E
:10215C007B8013467B707B78002B03D07A887B685E
:10216C001A6103E07B881A047B681A6100BF0C3784
:10217C00BD4680BC704780B485B000AF78600B461C
:10218C007B807B68DB68FB607A88FB6813401A04F1
:10219C00FB68D9437B880B401A437B681A6100BFEC
:1021AC001437BD4680BC704780B586B000AF7860F0
:1021BC007B68002B01D101236CE27B681B6803F068
:1021CC000103002B00F08780924B5B6803F00C033B
:1021DC00042B0CD08F4B5B6803F00C03082B12D133
:1021EC008C4B5B6803F48033B3F5803F0BD1894B88
:1021FC001B6803F40033002B6CD07B685B68002BEE
:10220C0068D1012346E27B685B68B3F5803F06D159
:10221C00804B1B687F4A43F4803313602EE07B684D
:10222C005B68002B0CD17B4B1B687A4A23F4803300
:10223C001360784B1B68774A23F4802313601DE0EE
:10224C007B685B68B3F5A02F0CD1724B1B68714A8D
:10225C0043F4802313606F4B1B686E4A43F4803346
:10226C0013600BE06B4B1B686A4A23F480331360DA
:10227C00684B1B68674A23F4802313607B685B6898
:10228C00002B13D0FFF7B6FC386108E0FFF7B2FC67
:10229C0002463B69D31A642B01D90323FAE15D4B47
:1022AC001B6803F40033002BF0D014E0FFF7A2FC02
:1022BC00386108E0FFF79EFC02463B69D31A642B99
:1022CC0001D90323E6E1534B1B6803F40033002BC5
:1022DC00F0D100E000BF7B681B6803F00203002B09
:1022EC0063D04C4B5B6803F00C03002B0BD0494BB9
:1022FC005B6803F00C03082B1CD1464B5B6803F4A2
:10230C008033002B16D1434B1B6803F00203002BC8
:10231C0005D07B681B69012B01D00123BAE13D4B31
:10232C001B6823F0F8027B685B69DB0039491343B7
:10233C000B603AE07B681B69002B20D0364B0122E6
:10234C001A60FFF757FC386108E0FFF753FC0246B0
:10235C003B69D31A022B01D903239BE12D4B1B683C
:10236C0003F00203002BF0D02A4B1B6823F0F80279
:10237C007B685B69DB00274913430B6015E0264B38
:10238C0000221A60FFF736FC386108E0FFF732FCD8
:10239C0002463B69D31A022B01D903237AE11D4B68
:1023AC001B6803F00203002BF0D17B681B6803F061
:1023BC000803002B3AD07B689B69002B19D0174B74
:1023CC0001221A60FFF716FC386108E0FFF712FCD7
:1023DC0002463B69D31A022B01D903235AE10D4B58
:1023EC005B6A03F00203002BF0D0012000F0A6FA88
:1023FC001CE00A4B00221A60FFF7FCFB38610FE06F
:10240C00FFF7F8FB02463B69D31A022B08D90323CA
:10241C0040E100BF001002400000424280044242F2
:10242C009E4B5B6A03F00203002BE9D17B681B68AF
:10243C0003F00403002B00F0A6800023FB75974BE0
:10244C00DB6903F08053002B0DD1944BDB69934A6D
:10245C0043F08053D361914BDB6903F08053BB6035
:10246C00BB680123FB758E4B1B6803F48073002B38
:10247C0018D18B4B1B688A4A43F480731360FFF7A7
:10248C00B9FB386108E0FFF7B5FB02463B69D31A8C
:10249C00642B01D90323FDE0814B1B6803F480738B
:1024AC00002BF0D07B68DB68012B06D17B4B1B6AC1
:1024BC007A4A43F0010313622DE07B68DB68002B42
:1024CC000CD1764B1B6A754A23F001031362734BD4
:1024DC001B6A724A23F0040313621CE07B68DB68FE
:1024EC00052B0CD16D4B1B6A6C4A43F00403136231
:1024FC006A4B1B6A694A43F0010313620BE0674B9A
:10250C001B6A664A23F001031362644B1B6A634A1D
:10251C0023F0040313627B68DB68002B15D0FFF7F4
:10252C0069FB38610AE0FFF765FB02463B69D31A89
:10253C0041F28832934201D90323ABE0574B1B6A1B
:10254C0003F00203002BEED014E0FFF753FB3861CD
:10255C000AE0FFF74FFB02463B69D31A41F288327F
:10256C00934201D9032395E04C4B1B6A03F0020301
:10257C00002BEED1FB7D012B05D1484BDB69474A83
:10258C0023F08053D3617B68DB69002B00F08180E2
:10259C00424B5B6803F00C03082B61D07B68DB6952
:1025AC00022B46D13F4B00221A60FFF723FB386108
:1025BC0008E0FFF71FFB02463B69D31A022B01D937
:1025CC00032367E0354B1B6803F00073002BF0D13D
:1025DC007B681B6AB3F5803F08D1304B5B6823F4F2
:1025EC0000327B689B682D4913434B602B4B5B6817
:1025FC0023F474127B68196A7B685B6A0B43274966
:10260C0013434B60274B01221A60FFF7F3FA386132
:10261C0008E0FFF7EFFA02463B69D31A022B01D907
:10262C00032337E01D4B1B6803F00073002BF0D025
:10263C002FE01C4B00221A60FFF7DCFA386108E02F
:10264C00FFF7D8FA02463B69D31A022B01D90323B0
:10265C0020E0124B1B6803F00073002BF0D118E044
:10266C007B68DB69012B01D1012313E00B4B5B6809
:10267C00FB60FB6803F480327B681B6A9A4206D1CC
:10268C00FB6803F470127B685B6A9A4201D00123E9
:10269C0000E0002318461837BD4680BD00100240EC
:1026AC00007000406000424280B584B000AF78609A
:1026BC0039607B68002B01D10123D0E06A4B1B6889
:1026CC0003F007033A689A4210D9674B1B6823F052
:1026DC00070265493B6813430B60634B1B6803F0AF
:1026EC0007033A689A4201D00123B8E07B681B6863
:1026FC0003F00203002B20D07B681B6803F004035B
:10270C00002B05D0594B5B68584A43F4E063536087
:10271C007B681B6803F00803002B05D0534B5B68E8
:10272C00524A43F460535360504B5B6823F0F00201
:10273C007B689B684D4913434B607B681B6803F0B7
:10274C000103002B40D07B685B68012B07D1474B02
:10275C001B6803F40033002B15D101237FE07B6849
:10276C005B68022B07D1414B1B6803F00073002BF5
:10277C0009D1012373E03D4B1B6803F00203002BCE
:10278C0001D101236BE0394B5B6823F003027B68BA
:10279C005B68364913434B60FFF72CFAF8600AE08C
:1027AC00FFF728FA0246FB68D31A41F288329342AB
:1027BC0001D9032353E02D4B5B6803F00C027B68BB
:1027CC005B689B009A42EBD1274B1B6803F0070315
:1027DC003A689A4210D2244B1B6823F00702224914
:1027EC003B6813430B60204B1B6803F007033A68EC
:1027FC009A4201D0012332E07B681B6803F004038A
:10280C00002B08D0194B5B6823F4E0627B68DB6813
:10281C00164913434B607B681B6803F00803002BBD
:10282C0009D0124B5B6823F460527B681B69DB0098
:10283C000E4913434B6000F021F802460B4B5B68CA
:10284C001B0903F00F030A49CB5C22FA03F3094A74
:10285C001360094B1B681846FFF78AF900231846CA
:10286C001037BD4680BD00BF002002400010024062
:10287C00CC3100084C0000205000002090B48AB0ED
:10288C0000AF2A4B3C1D0FCB84E80F0040F2012314
:10289C003B800023FB610023BB6100237B62002390
:1028AC007B6100233B62224B5B68FB61FB6903F09D
:1028BC000C03042B02D0082B03D02DE01D4B3B62E4
:1028CC002DE0FB699B0C03F00F0307F12802134466
:1028DC0013F8243C7B61FB6903F48033002B13D089
:1028EC00134B5B685B0C03F0010307F128021344E4
:1028FC0013F8283CBB617B690E4A02FB03F2BB69EF
:10290C00B2FBF3F37B6204E07B690B4A02FB03F33B
:10291C007B627B6A3B6202E0064B3B6200BF3B6A18
:10292C0018462837BD4690BC704700BFBC31000824
:10293C000010024000127A0000093D0080B485B0FE
:10294C0000AF78600A4B1B680A4AA2FB03235B0AA0
:10295C007A6802FB03F3FB6000BFFB685A1EFA6047
:10296C00002BF9D100BF00BF1437BD4680BC7047A7
:10297C004C000020D34D621080B582B000AF78605F
:10298C007B68002B01D1012341E07B6893F83D303B
:10299C00DBB2002B06D17B68002283F83C207868E0
:1029AC00FFF74EF87B68022283F83D207B681A689B
:1029BC007B6804331946104600F06AFA7B680122E2
:1029CC0083F846207B68012283F83E207B68012235
:1029DC0083F83F207B68012283F840207B6801222A
:1029EC0083F841207B68012283F842207B68012216
:1029FC0083F843207B68012283F844207B68012202
:102A0C0083F845207B68012283F83D20002318467B
:102A1C000837BD4680BD000080B485B000AF78603B
:102A2C007B6893F83D30DBB2012B01D0012335E0FC
:102A3C007B68022283F83D207B681B68DA687B6820
:102A4C001B6842F00102DA607B681B68164A9342ED
:102A5C0009D07B681B68B3F1804F04D07B681B687E
:102A6C00124A934211D17B681B689B6803F00703E1
:102A7C00FB60FB68062B10D07B681B681A687B68B0
:102A8C001B6842F001021A6007E07B681B681A6839
:102A9C007B681B6842F001021A6000231846143749
:102AAC00BD4680BC704700BF002C014000040040B4
:102ABC0080B582B000AF78607B681B681B6903F03F
:102ACC000203022B22D17B681B68DB6803F0020334
:102ADC00022B1BD17B681B686FF002021A617B68AA
:102AEC0001221A777B681B689B6903F00303002B98
:102AFC0003D0786800F0B1F905E0786800F0A4F92B
:102B0C00786800F0B3F97B6800221A777B681B6841
:102B1C001B6903F00403042B22D17B681B68DB6860
:102B2C0003F00403042B1BD17B681B686FF00402B9
:102B3C001A617B6802221A777B681B689B6903F415
:102B4C004073002B03D0786800F087F905E07868B3
:102B5C0000F07AF9786800F089F97B6800221A771E
:102B6C007B681B681B6903F00803082B22D17B6868
:102B7C001B68DB6803F00803082B1BD17B681B6800
:102B8C006FF008021A617B6804221A777B681B6855
:102B9C00DB6903F00303002B03D0786800F05DF9C8
:102BAC0005E0786800F050F9786800F05FF97B6810
:102BBC0000221A777B681B681B6903F01003102B2B
:102BCC0022D17B681B68DB6803F01003102B1BD130
:102BDC007B681B686FF010021A617B6808221A77F9
:102BEC007B681B68DB6903F44073002B03D07868A7
:102BFC0000F033F905E0786800F026F9786800F009
:102C0C0035F97B6800221A777B681B681B6903F017
:102C1C000103012B0ED17B681B68DB6803F00103F9
:102C2C00012B07D17B681B686FF001021A61786871
:102C3C00FEF718FE7B681B681B6903F08003802B72
:102C4C000ED17B681B68DB6803F08003802B07D1F7
:102C5C007B681B686FF080021A61786800F067FA75
:102C6C007B681B681B6903F04003402B0ED17B680B
:102C7C001B68DB6803F04003402B07D17B681B68A3
:102C8C006FF040021A61786800F0F9F87B681B68F5
:102C9C001B6903F02003202B0ED17B681B68DB68BB
:102CAC0003F02003202B07D17B681B686FF02002F8
:102CBC001A61786800F032FA00BF0837BD4680BD53
:102CCC0080B584B000AF786039607B6893F83C3095
:102CDC00012B01D10223B3E07B68012283F83C2055
:102CEC007B68022283F83D207B681B689B68FB6035
:102CFC00FB6823F07703FB60FB6823F47F43FB60E6
:102D0C007B681B68FA689A603B681B68B3F5005FC8
:102D1C003ED0B3F5005F00F28780B3F5805F00F022
:102D2C008580B3F5805F7FD8702B1AD0702B7BD841
:102D3C00602B50D0602B77D8502B3CD0502B73D8B5
:102D4C00402B58D0402B6FD8302B64D0302B6BD805
:102D5C00202B60D0202B67D8002B5CD0102B5AD0A6
:102D6C0062E07B6818683B6899683B685A683B6806
:102D7C00DB6800F05CF97B681B689B68FB60FB6898
:102D8C0043F07703FB607B681B68FA689A604EE03F
:102D9C007B6818683B6899683B685A683B68DB68D5
:102DAC0000F045F97B681B689A687B681B6842F4E5
:102DBC0080429A603BE07B6818683B6859683B68C6
:102DCC00DB681A4600F0BCF87B681B68502118467B
:102DDC0000F013F92BE07B6818683B6859683B6876
:102DEC00DB681A4600F0DAF87B681B68602118462D
:102DFC0000F003F91BE07B6818683B6859683B6876
:102E0C00DB681A4600F09CF87B681B68402118466A
:102E1C0000F0F3F80BE07B681A683B681B681946F6
:102E2C00104600F0EAF802E000BF00E000BF7B684B
:102E3C00012283F83D207B68002283F83C2000238C
:102E4C0018461037BD4680BD80B483B000AF7860A3
:102E5C0000BF0C37BD4680BC704780B483B000AF58
:102E6C00786000BF0C37BD4680BC704780B483B01F
:102E7C0000AF786000BF0C37BD4680BC704780B493
:102E8C0083B000AF786000BF0C37BD4680BC704784
:102E9C0080B485B000AF786039607B681B68FB60DC
:102EAC007B68254A934207D07B68B3F1804F03D0EF
:102EBC007B68224A934208D1FB6823F07003FB60C5
:102ECC003B685B68FA681343FB607B681A4A934261
:102EDC0007D07B68B3F1804F03D07B68174A9342CD
:102EEC0008D1FB6823F44073FB603B68DB68FA682D
:102EFC001343FB60FB6823F080023B685B69134360
:102F0C00FB607B68FA681A603B689A687B68DA62D7
:102F1C003B681A687B689A627B68074A934203D1C4
:102F2C003B681A697B681A637B6801225A6100BF8F
:102F3C001437BD4680BC7047002C01400004004093
:102F4C0080B487B000AFF860B9607A60FB681B6A28
:102F5C007B61FB681B6A23F00102FB681A62FB6849
:102F6C009B693B613B6923F0F0033B617B681B0170
:102F7C003A6913433B617B6923F00A037B617A69ED
:102F8C00BB6813437B61FB683A699A61FB687A6999
:102F9C001A6200BF1C37BD4680BC704780B487B036
:102FAC0000AFF860B9607A60FB681B6A23F010020E
:102FBC00FB681A62FB689B697B61FB681B6A3B615F
:102FCC007B6923F470437B617B681B037A69134331
:102FDC007B613B6923F0A0033B61BB681B013A6931
:102FEC0013433B61FB687A699A61FB683A691A6220
:102FFC0000BF1C37BD4680BC704780B485B000AFA5
:10300C00786039607B689B68FB60FB6823F0700319
:10301C00FB603A68FB68134343F00703FB607B6873
:10302C00FA689A6000BF1437BD4680BC704780B404
:10303C0087B000AFF860B9607A603B60FB689B6852
:10304C007B617B6923F47F437B613B681A027B685D
:10305C001A43BB6813437A6913437B61FB687A6933
:10306C009A6000BF1C37BD4680BC704780B485B0E9
:10307C0000AF786039607B6893F83C30012B01D14C
:10308C00022341E07B68012283F83C207B6802220A
:10309C0083F83D207B681B685B68FB607B681B6862
:1030AC009B68BB60FB6823F07003FB603B681B688C
:1030BC00FA681343FB607B681B68FA685A607B688C
:1030CC001B68144A934209D07B681B68B3F1804F8C
:1030DC0004D07B681B68104A93420CD1BB6823F068
:1030EC008003BB603B685B68BA681343BB607B685A
:1030FC001B68BA689A607B68012283F83D207B6864
:10310C00002283F83C20002318461437BD4680BCAF
:10311C00704700BF002C01400004004080B483B015
:10312C0000AF786000BF0C37BD4680BC704780B4E0
:10313C0083B000AF786000BF0C37BD4680BC7047D1
:10314C0070B500260C4D0D4C641BA410A64209D181
:10315C0000F022F800260A4D0A4C641BA410A6426B
:10316C0005D170BD55F8043B98470136EEE755F88C
:10317C00043B98470136F2E7DC310008DC310008EB
:10318C00DC310008E031000803460244934200D1D0
:10319C00704703F8011BF9E7F8B500BFF8BC08BC91
:1031AC009E467047F8B500BFF8BC08BC9E467047F9
:1031BC0002030405060708090A0B0C0D0E0F10106C
:1031CC0000000000000000000102030406070809CB
:0431DC0031010008B5
:0431E0000D010008D5
:1031E40001000000010000000100000001000000D7
:1031F40001000000010000000100000001000000C7
:1032040001000000010000000100000001000000B6
:103214000A00000005000000030000000200000096
:103224000500000003000000020000000024F40078
:08323400100000000100000081
:0400000508001B05CF
:00000001FF
